:1000000019C033C032C031C030C02FC02EC02DC087
:100010002CC02BC02AC029C028C027C026C025C09C
:1000200024C023C01AC321C020C01FC01EC01DC0D1
:100030001CC01BC011241FBECFEFD2E0DEBFCDBF5E
:1000400011E0A0E0B1E0E0EDFAE002C005900D9211
:10005000AA30B107D9F711E0AAE0B1E001C01D92C2
:10006000AF36B107E1F742D231C5CACF1092B9001D
:10007000E8EBF0E080E28083908181E09B3008F43F
:1000800080E00895CF93DF9310920A01880F682BC8
:10009000ECEBF0E024EAA9EBB0E0CBEBD0E034E805
:1000A00084E9208307C090910A019F5F90930A0121
:1000B000953648F590819923B4F79C91987F9830B4
:1000C00011F0903111F56883308307C090910A01D7
:1000D0009F5F90930A019536D0F490819923B4F7ED
:1000E0009C91987F903211F0983599F4808307C0E5
:1000F00090910A019F5F90930A01953660F4908178
:1001000094FDF6CFCECF80E007C080E005C080E050
:1001100003C081E001C080E0DF91CF91089510928B
:100120000A0184E98093BC00ECEBF0E007C0809109
:100130000A018F5F80930A01853618F4808184FD5F
:10014000F6CF089510920A018093BB0084E8809353
:10015000BC00ECEBF0E007C080910A018F5F809358
:100160000A01853658F480818823B4F79091B9004C
:10017000987F81E0983219F480E0089580E0089536
:1001800010920A0184EC8093BC00ECEBF0E007C015
:1001900080910A018F5F80930A01853630F4808157
:1001A0008823B4F78091BB00089580E008951092F1
:1001B0000A0184E88093BC00ECEBF0E007C080917A
:1001C0000A018F5F80930A01853630F4808188238D
:1001D000B4F78091BB00089580E0089580910B01F1
:1001E00090910C010895CF93DF93D82FC62F82E60C
:1001F00060E048DF882319F492DF80E006C08D2F8D
:10020000A1DF8C2F9FDF8BDF81E0DF91CF910895FD
:1002100060EA76E881E090E029DF882321F080E041
:1002200060E0E1DF089580E008950F931F93CF937E
:10023000DF93082F162FEA0182E660E023DF882390
:1002400019F46DDF80E01FC0123009F40068802FC0
:1002500079DF65DF82E661E015DF882319F45FDF6F
:1002600080E011C0113019F48BDF88830AC012308E
:1002700029F486DF888384DF898303C050DF80E030
:1002800002C04DDF81E0DF91CF911F910F91089562
:10029000CF93DF9300D0CDB7DEB780E064E0A3DF7B
:1002A0008823C9F08FE59AEE0197F1F700C00000AE
:1002B0008FE062E0AE014F5F5F4FB7DF882371F0E0
:1002C000398120E08A8190E0822B932B90930C015E
:1002D00080930B0105C080E090E002C080E090E0D8
:1002E0000F900F90DF91CF91089560E070E0CB0107
:1002F0000CD2109201011092000181E08093020162
:1003000008958091000190910101843B910548F08E
:1003100084EB90E090930101809300018FEF809334
:1003200002018091000190910101009719F481E090
:1003300080930201609100017091010180E090E0E2
:1003400097D2E3D18FEF90E7A2E081509040A04098
:10035000E1F700C000009CDF80910201992787FD32
:100360009095880F991F2091000130910101820F13
:10037000931F9093010180930001089508951092B6
:100380000D0180E09BE412D181E00895CF93C82F46
:1003900081E090E0E7D080910D01823001F183305F
:1003A00030F4882361F0813009F051C00FC08430EF
:1003B00049F1843008F1853009F049C029C0C230C4
:1003C00009F047C081E080930D0143C0C23021F4A1
:1003D00082E080930D013DC010920D013AC08C2F38
:1003E0008250823018F410920D0133C0C0930E0178
:1003F00083E080930D012DC0C0930F0184E08093B2
:100400000D0127C0C093100185E080930D0121C02C
:10041000C330D1F481E08093110190910F0180E00D
:10042000009749F481E090E020911001222329F403
:1004300080E090E002C081E090E090936E018093B4
:100440006D0110920D0105C010920D0102C01092B5
:100450000D0180E090E086D081E0CF9108958091F9
:100460006D0190916E010895CF93C82F803219F4D9
:100470003CDF81E02CC082E0C7D082E0C5D08C2F69
:10048000C3D0CE3491F0CF3419F0CA34F9F413C08C
:1004900080911201880FB8D090911201992399F0A0
:1004A00080E08F5F8917E9F70EC081E0ADD08091C1
:1004B0001201AAD008C082E0A7D090DEC82F892FF1
:1004C000A3D08C2FA1D083E09FD001C080E0CF913A
:1004D000089580911101882341F080910E01C4DFBD
:1004E00010920E01109211010CDF0895CF93DF934B
:1004F00000D00F92CDB7DEB7F8942BD0882331F11E
:10050000DED0882319F184DE882301F138DF8823C7
:10051000E9F0EBDE882319F001E010E002C000E012
:1005200010E07894DE011196E7E0F1E083E00190BD
:100530000D928150E1F7CE0101966ED001151105A3
:1005400011F0C7DFFBCF81E00DD0F8CF00E010E065
:10055000E8CF8FEF84B987B98AB915B818B81BB836
:1005600081E00895882311F0289A08952898089525
:10057000CF93C82F8823C1F081E0F4DF8FEF92E59D
:10058000A7E081509040A040E1F700C0000080E06B
:10059000E9DF8FEF91EEA4E081509040A040E1F7B9
:1005A00000C00000C15041F7CF910895E0ECF0E0A9
:1005B00020812D7F20839C0140E050E060E271EAC1
:1005C00087E090E046D2CA01B90161507040804096
:1005D000904050D121D17093C5006093C400E1ECEC
:1005E000F0E088E180838EE08093C20080818068A3
:1005F00080838FEF99E6A8E181509040A040E1F719
:1006000000C0000081E00895E0ECF0E0908195FFEB
:10061000FDCF8093C60008950F931F93CF938C0155
:10062000FC018081882349F0C0E0EEDFCF5FF80154
:10063000EC0FF11D80818823C1F78AE0E5DF8DE0B2
:10064000E3DFCF911F910F910895E0ECF0E08081FE
:1006500084FFFDCF8091C60008951F920F920FB6C0
:100660000F9211242F933F934F935F936F937F9338
:100670008F939F93AF93BF93EF93FF938091C600A7
:1006800085DEFF91EF91BF91AF919F918F917F9107
:100690006F915F914F913F912F910F900FBE0F90EF
:1006A0001F9018958091C00084FF08C0A6ECB0E0B0
:1006B000E0ECF0E08C91808184FDFCCF08958AB15C
:1006C0008FEF8AB9E0E8F0E0808182688083E1E81A
:1006D000F0E0808189618083808182608083808175
:1006E0008E7F808380818B7F8083E6E8F0E08FE1DE
:1006F0009EE491838083808191818F539240909377
:1007000089008093880081E0089520E030E040E295
:1007100051E43CD120E030EC4FE054E419D07CD0DF
:1007200022E06F33720710F46FE372E0809186006D
:100730009091870029E06834720710F067E479E04F
:10074000861B970B909389008093880008955058DA
:10075000BB27AA270ED0E0C0D1D030F0D6D020F0F1
:1007600031F49F3F11F41EF4C6C00EF4E095E7FB90
:10077000BCC0E92FE2D080F3BA1762077307840781
:10078000950718F071F49EF5FAC00EF4E0950B2E63
:10079000BA2FA02D0B01B90190010C01CA01A001D3
:1007A0001124FF27591B99F0593F50F4503E68F12E
:1007B0001A16F040A22F232F342F4427585FF3CF6F
:1007C000469537952795A795F0405395C9F77EF440
:1007D0001F16BA0B620B730B840BBAF09150A1F089
:1007E000FF0FBB1F661F771F881FC2F70EC0BA0F0F
:1007F000621F731F841F48F4879577956795B79597
:10080000F7959E3F08F0B3CF9395880F08F099278E
:10081000EE0F97958795089598D088F09F5790F0A0
:10082000B92F9927B751A0F0D1F0660F771F881F15
:10083000991F1AF0BA95C9F712C0B13081F09FD054
:10084000B1E008959CC0672F782F8827B85F39F0F2
:10085000B93FCCF3869577956795B395D9F73EF474
:1008600090958095709561957F4F8F4F9F4F08951C
:10087000E89409C097FB3EF490958095709561953A
:100880007F4F8F4F9F4F9923A9F0F92F96E9BB27F0
:100890009395F695879577956795B795F111F8CF6C
:1008A000FAF4BB0F11F460FF1BC06F5F7F4F8F4FD7
:1008B0009F4F16C0882311F096E911C0772321F0CD
:1008C0009EE8872F762F05C0662371F096E8862F65
:1008D00070E060E02AF09A95660F771F881FDAF7BC
:1008E000880F9695879597F9089597F99F6780E8FF
:1008F00070E060E008959FEF80EC089500240A9472
:100900001616170618060906089500240A941216EA
:100910001306140605060895092E0394000C11F41D
:10092000882352F0BB0F40F4BF2B11F460FF04C0CA
:100930006F5F7F4F8F4F9F4F089557FD9058440F23
:10094000551F59F05F3F71F04795880F97FB991F2E
:1009500061F09F3F79F087950895121613061406EB
:10096000551FF2CF4695F1DF08C016161706180678
:10097000991FF1CF86957105610508940895E89453
:10098000BB2766277727CB0197F908950BD0C4CFF3
:10099000B5DF28F0BADF18F0952309F0A6CFABCF6A
:1009A0001124EECFCADFA0F3959FD1F3950F50E04D
:1009B000551F629FF001729FBB27F00DB11D639F11
:1009C000AA27F00DB11DAA1F649F6627B00DA11DB7
:1009D000661F829F2227B00DA11D621F739FB00D5D
:1009E000A11D621F839FA00D611D221F749F3327CD
:1009F000A00D611D231F849F600D211D822F762F66
:100A00006A2F11249F5750408AF0E1F088234AF062
:100A1000EE0FFF1FBB1F661F771F881F91505040AE
:100A2000A9F79E3F510570F060CFAACF5F3FECF36E
:100A3000983EDCF3869577956795B795F795E7959A
:100A40009F5FC1F7FE2B880F911D9695879597F9AB
:100A5000089597FB092E05260ED057FD04D014D01B
:100A60000AD0001C38F450954095309521953F4FA1
:100A70004F4F5F4F0895F6F790958095709561956B
:100A80007F4F8F4F9F4F0895A1E21A2EAA1BBB1BC9
:100A9000FD010DC0AA1FBB1FEE1FFF1FA217B3074A
:100AA000E407F50720F0A21BB30BE40BF50B661F60
:100AB000771F881F991F1A9469F760957095809524
:100AC00090959B01AC01BD01CF010895F894FFCF33
:0A0AD000000001000000004F4B0081
:00000001FF
