:100000000C9434000C9451000C9451000C94510049
:100010000C9451000C9451000C9451000C9451001C
:100020000C9451000C9451000C9451000C9451000C
:100030000C9451000C9451000C9451000C945100FC
:100040000C9451000C9451000C941E050C9451001A
:100050000C9451000C9451000C9451000C945100DC
:100060000C9451000C94510011241FBECFEFD4E02A
:10007000DEBFCDBF11E0A0E0B1E0E2E0F2E102C0FE
:1000800005900D92AA31B107D9F712E0AAE1B1E0CB
:1000900001C01D92A933B107E1F70E9457040C94E7
:1000A000FF080C9400001F93CF93DF93EC01162FF1
:1000B0008C81861789F1888199810E946608812F39
:1000C00090E0880F991F880F991F0E94D00788839E
:1000D00099831123D1F0212F215030E02F5F3F4F22
:1000E000220F331F220F331F80E090E040E050E0EA
:1000F000BA01E881F981E80FF91F408351836283D7
:100100007383049682179307A1F71F5F1C831D82D8
:100110001A821B8281E001C080E0DF91CF911F91A4
:100120000895CF93DF93CDB7DEB72C970FB6F89431
:10013000DEBF0FBECDBF682FCE0107960E945300D1
:10014000DE011196FE01379686E001900D928150F6
:10015000E1F729813A814B815C816D817E8190E05C
:100160002C960FB6F894DEBF0FBECDBFDF91CF91B6
:100170000895FC0183819281981751F08F5F64810B
:100180000E947307938385818150858381E0089560
:1001900080E00895CF92DF92EF92FF92CF93DF93AA
:1001A000EC016A017B012A81822F90E001966C812B
:1001B00070E00E947F079B81981791F030E0220F3A
:1001C000331F220F331FE881F981E20FF31FC08232
:1001D000D182E282F3828A838D818F5F8D8308C012
:1001E000CE010E94B900CE01B701A6010E94CA004B
:1001F00081E0DF91CF91FF90EF90DF90CF90089555
:10020000FC018381860F64810E947307892F90E02F
:10021000880F991F880F991F0190F081E02DE80F3A
:10022000F91F5081418132812381852F942FA32F83
:10023000B22FBC01CD0108951092B900E8EBF0E0B7
:1002400080E28083908181E09B3008F480E0089513
:10025000CF93DF9310921A01880F682BECEBF0E03C
:1002600024EAA9EBB0E0CBEBD0E034E884E92083CA
:1002700007C090911A019F5F90931A01953648F537
:1002800090819923B4F79C91987F983011F0903128
:1002900011F56883308307C090911A019F5F909396
:1002A0001A019536D0F490819923B4F79C91987FE8
:1002B000903211F0983599F4808307C090911A011B
:1002C0009F5F90931A01953660F4908194FDF6CF6C
:1002D000CECF80E007C080E005C080E003C081E0B1
:1002E00001C080E0DF91CF91089510921A0184E956
:1002F0008093BC00ECEBF0E007C080911A018F5FA7
:1003000080931A01853618F4808184FDF6CF089514
:1003100010921A018093BB0084E88093BC00ECEB40
:10032000F0E007C080911A018F5F80931A01853633
:1003300058F480818823B4F79091B900987F81E0C8
:10034000983219F480E0089580E0089510921A011F
:1003500084EC8093BC00ECEBF0E007C080911A01C4
:100360008F5F80931A01853630F480818823B4F73B
:100370008091BB00089580E0089510921A0184E8EE
:100380008093BC00ECEBF0E007C080911A018F5F16
:1003900080931A01853630F480818823B4F78091E8
:1003A000BB00089580E0089580911B0190911C018D
:1003B0000895CF93DF93D82FC62F82E660E00E9486
:1003C0002801882321F40E94750180E009C08D2F47
:1003D0000E9488018C2F0E9488010E94750181E093
:1003E000DF91CF91089560EA76E881E090E00E9485
:1003F0001C01882329F080E060E00E94D901089563
:1004000080E008950F931F93CF93DF93082F162F4B
:10041000EA0182E660E00E942801882321F40E941C
:10042000750180E028C0123009F40068802F0E9416
:1004300088010E94750182E661E00E9428018823FC
:1004400021F40E94750180E016C0113021F40E9451
:10045000A60188830DC0123039F40E94A60188835A
:100460000E94A601898304C00E94750180E003C038
:100470000E94750181E0DF91CF911F910F91089546
:10048000CF93DF9300D0CDB7DEB780E064E00E9469
:10049000D901882331F18FE59AEE0197F1F700C079
:1004A00000008FE062E0AE014F5F5F4F0E940202EA
:1004B0008823D1F0998180E02A8130E0822B932B30
:1004C00090931C0180931B01009731F48CEB92E018
:1004D00090931C0180931B0180911B0190911C0142
:1004E00005C080E090E002C080E090E00F900F90A7
:1004F000DF91CF91089560E070E0CB010E94870505
:10050000109206011092050181E080930701089581
:10051000CF92DF92EF92FF920F931F93CF93DF93CF
:1005200000D000D00F92CDB7DEB7DE011196E0E02B
:10053000F1E085E001900D928150E1F700E010E0DC
:100540000F2EF5E0EF2EFF24F02DEC0EFD1ECC2437
:10055000DD2416C041915D914503C0011124280F8F
:10056000391FEE15FF05B1F72531310524F081E083
:1005700090E00E94A1040F5F1F4F003B110539F06E
:10058000FE013196D801A35EBE4F9601E3CF809164
:100590000E0190910F0120910C0130910D0128174F
:1005A000390740F0FC01E35EFE4F119201962817D7
:1005B0003907D8F710920D0110920C018FEF9FEFC1
:1005C00090930F0180930E010F900F900F900F905A
:1005D0000F90DF91CF911F910F91FF90EF90DF90DF
:1005E000CF90089521E08936920734F088569140E3
:1005F00021E089369207D4F72EEF8839920734F438
:1006000088599E4F2EEF88399207D4F399231CF412
:1006100088599E4FEAF30895EF92FF921F93CF936C
:10062000DF93182F0E940204E82EF92EC0910501D5
:10063000D0910601CB35D10540F0C7018C1B9D0B35
:10064000865A9F4F0E94F20201C0CE01CA35D105E1
:1006500038F4C7018C1B9D0B865A9F4F0E94F202F3
:10066000CA35D10509F4C70196958795FC01E35E6B
:10067000FE4F108320910C0130910D01281739078E
:1006800020F490930D0180930C0120910E01309184
:100690000F018217930720F490930F0180930E01AE
:1006A000DF91CF911F91FF90EF9008958091050108
:1006B00090910601843B910548F084EB90E0909383
:1006C0000601809305018FEF80930701809105015A
:1006D00090910601009719F481E0809307016091E1
:1006E00005017091060180E090E00E9482060E9460
:1006F00087050E9440020E940C0380910701992700
:1007000087FD9095880F991F209105013091060172
:10071000820F931F90930601809305010895109214
:10072000D10180E09BE40E94C10481E00895CF9351
:10073000C82F81E090E00E949B048091D10182301B
:1007400001F1833030F4882361F0813009F051C029
:100750000FC0843049F1843008F1853009F049C078
:1007600029C0C23009F047C081E08093D10143C065
:10077000C23021F482E08093D1013DC01092D101BA
:100780003AC08C2F8250823018F41092D10133C0BD
:10079000C093D20183E08093D1012DC0C093D301D7
:1007A00084E08093D10127C0C093D40185E0809379
:1007B000D10121C0C330D1F481E08093D501909163
:1007C000D30180E0009749F481E090E02091D401CA
:1007D000222329F480E090E002C081E090E0909331
:1007E0003202809331021092D10105C01092D101E2
:1007F00002C01092D10180E090E00E949B0481E051
:10080000CF91089580913102909132020895CF9353
:10081000C82F803221F40E947B0281E037C082E041
:100820000E94F20482E00E94F2048C2F0E94F204E3
:10083000CE3499F0CF3419F0CA3439F516C080910E
:10084000D601880F0E94F2049091D6019923C9F035
:1008500080E08F5F8917E9F714C081E00E94F204FD
:100860008091D6010E94F2040CC082E00E94F20442
:100870000E94D401C82F892F0E94F2048C2F0E945D
:10088000F20483E00E94F20401C080E0CF91089559
:100890008091D501882351F08091D2010E940704F4
:1008A0001092D2011092D5010E9456030895CF9361
:1008B000DF9300D00F92CDB7DEB7F8940E94920478
:1008C000882369F10E945105882349F10E94F301B0
:1008D000882329F10E948F03882309F10E947B025B
:1008E000882319F001E010E002C000E010E07894E5
:1008F000DE011196E0E1F1E083E001900D9281507C
:10090000E1F7CE0101960E94FA040115110519F0D4
:100910000E944804FACF81E00E949B04F6CF00E0D9
:1009200010E0E5CF8FEF84B987B98AB915B818B848
:100930001BB881E00895882311F0289A089528981B
:100940000895CF93C82F8823D1F081E00E949B04A3
:100950008FEF92E5A7E081509040A040E1F700C002
:10096000000080E00E949B048FEF91EEA4E0815094
:100970009040A040E1F700C00000C15031F7CF9196
:100980000895E0ECF0E020812D7F20839C0140E081
:1009900050E060E271EA87E090E00E949307CA01AC
:1009A000B90161507040804090400E9484060E94CE
:1009B00056067093C5006093C400E1ECF0E088E156
:1009C00080838EE08093C2008081806880838FEF77
:1009D00099E6A8E181509040A040E1F700C00000F6
:1009E00081E00895E0ECF0E0908195FFFDCF8093E9
:1009F000C60008950F931F93CF938C01FC01808153
:100A0000882351F0C0E00E94F204CF5FF801EC0FA0
:100A1000F11D80818823B9F78AE00E94F2048DE0FD
:100A20000E94F204CF911F910F910895E0ECF0E045
:100A3000808184FFFDCF8091C60008951F920F92A0
:100A40000FB60F9211242F933F934F935F936F93A1
:100A50007F938F939F93AF93BF93EF93FF93809177
:100A6000C6000E949703FF91EF91BF91AF919F91B4
:100A70008F917F916F915F914F913F912F910F9047
:100A80000FBE0F901F9018958091C00084FF08C082
:100A9000A6ECB0E0E0ECF0E08C91808184FDFCCF2E
:100AA00008958AB18FEF8AB9E0E8F0E0808182682A
:100AB0008083E1E8F0E080818961808380818260C9
:100AC000808380818E7F808380818B7F8083E6E836
:100AD000F0E08FE19EE491838083808191818F5348
:100AE0009240909389008093880081E00895009758
:100AF00069F020E030E0E9EFF0E03197F1F700C075
:100B000000002F5F3F4F28173907A9F70895CF92AC
:100B1000DF92EF92FF920F931F93CF93DF936B01BE
:100B20007C0120E030E040E251E40E94100720E028
:100B300030EC4FE054E40E94ED050E9456068B0114
:100B40009C01609133027091340280E090E00E9439
:100B50008206A70196010E94EC050E945106862F8D
:100B6000972F99231CF4909581959F4F9C01992371
:100B700014F42F5F3F4F35952795D22FC32FC70110
:100B8000B6010E945606DC01CB019093340280939B
:100B9000330222E00F33120710F40FE312E08091CA
:100BA00086009091870029E00834120710F007E4CE
:100BB00019E0801B910B90938900809388008D2F02
:100BC0009C2F0E947705DF91CF911F910F91FF908D
:100BD000EF90DF90CF9008955058BB27AA270ED0F2
:100BE000E5C0D6D030F0DBD020F031F49F3F11F4D7
:100BF0001EF4CBC00EF4E095E7FBC1C0E92FE7D0AF
:100C000080F3BA17620773078407950718F071F429
:100C10009EF5FFC00EF4E0950B2EBA2FA02D0B0110
:100C2000B90190010C01CA01A0011124FF27591B31
:100C300099F0593F50F4503E68F11A16F040A22F37
:100C4000232F342F4427585FF3CF469537952795A8
:100C5000A795F0405395C9F77EF41F16BA0B620BA7
:100C6000730B840BBAF09150A1F0FF0FBB1F661FEE
:100C7000771F881FC2F70EC0BA0F621F731F841F31
:100C800048F4879577956795B795F7959E3F08F057
:100C9000B3CF9395880F08F09927EE0F9795879516
:100CA000089504D06894B111B5C0089598D088F023
:100CB0009F5790F0B92F9927B751A0F0D1F0660F48
:100CC000771F881F991F1AF0BA95C9F712C0B13063
:100CD00081F09FD0B1E008959CC0672F782F8827BE
:100CE000B85F39F0B93FCCF3869577956795B395A2
:100CF000D9F73EF490958095709561957F4F8F4F11
:100D00009F4F0895E89409C097FB3EF49095809515
:100D1000709561957F4F8F4F9F4F9923A9F0F92FC1
:100D200096E9BB279395F695879577956795B7953F
:100D3000F111F8CFFAF4BB0F11F460FF1BC06F5F25
:100D40007F4F8F4F9F4F16C0882311F096E911C037
:100D5000772321F09EE8872F762F05C0662371F058
:100D600096E8862F70E060E02AF09A95660F771F6C
:100D7000881FDAF7880F9695879597F9089597F960
:100D80009F6780E870E060E008959FEF80EC089531
:100D900000240A941616170618060906089500245A
:100DA0000A9412161306140605060895092E0394D4
:100DB000000C11F4882352F0BB0F40F4BF2B11F448
:100DC00060FF04C06F5F7F4F8F4F9F4F089557FDA7
:100DD0009058440F551F59F05F3F71F04795880FA9
:100DE00097FB991F61F09F3F79F087950895121640
:100DF00013061406551FF2CF4695F1DF08C01616EC
:100E000017061806991FF1CF86957105610508949C
:100E10000895E894BB2766277727CB0197F90895B3
:100E20000BD0C4CFB5DF28F0BADF18F0952309F056
:100E3000A6CFABCF1124EECFCADFA0F3959FD1F39D
:100E4000950F50E0551F629FF001729FBB27F00D78
:100E5000B11D639FAA27F00DB11DAA1F649F6627CD
:100E6000B00DA11D661F829F2227B00DA11D621F1C
:100E7000739FB00DA11D621F839FA00D611D221FD6
:100E8000749F3327A00D611D231F849F600D211DBA
:100E9000822F762F6A2F11249F5750408AF0E1F05D
:100EA00088234AF0EE0FFF1FBB1F661F771F881FA6
:100EB00091505040A9F79E3F510570F060CFAACFE6
:100EC0005F3FECF3983EDCF3869577956795B79591
:100ED000F795E7959F5FC1F7FE2B880F911D9695BB
:100EE000879597F90895991B79E004C0991F961783
:100EF00008F0961B881F7A95C9F780950895AA1B5C
:100F0000BB1B51E107C0AA1FBB1FA617B70710F0F4
:100F1000A61BB70B881F991F5A95A9F78095909526
:100F2000BC01CD01089597FB092E05260ED057FD73
:100F300004D014D00AD0001C38F450954095309558
:100F400021953F4F4F4F5F4F0895F6F7909580954D
:100F5000709561957F4F8F4F9F4F0895A1E21A2E94
:100F6000AA1BBB1BFD010DC0AA1FBB1FEE1FFF1F4D
:100F7000A217B307E407F50720F0A21BB30BE40B9D
:100F8000F50B661F771F881F991F1A9469F76095E4
:100F90007095809590959B01AC01BD01CF0108959E
:100FA000CF93DF93AC018230910510F442E050E022
:100FB000E0913702F091380220E030E0A0E0B0E0AC
:100FC00024C08081918184179507D0F084179507FC
:100FD00071F482819381109729F013969C938E93DC
:100FE00012972CC0909338028093370227C02115A6
:100FF000310519F08217930718F49C01BD01EF0128
:1010000092818381DF01E92FF82F3097D1F62115E6
:101010003105F9F0C901841B950B8430910580F4EA
:101020008A819B816115710521F0FB019383828385
:1010300004C09093380280933702FE01329642C07A
:10104000FE01E80FF91F419351930297998388831A
:1010500039C08091350290913602009741F4809119
:1010600015019091160190933602809335022091DC
:101070001301309114012115310541F42DB73EB70C
:101080008091170190911801281B390BE0913502CE
:10109000F0913602E217F30798F42E1B3F0B24174A
:1010A000350770F0CA0102962817390748F08E0FED
:1010B0009F1F90933602809335024193519302C053
:1010C000E0E0F0E0CF01DF91CF9108950F931F93FF
:1010D000CF93DF939C01009709F48CC0DC01129739
:1010E00013961C921E9212976091370270913802EB
:1010F0006115710589F48D919C911197820F931F51
:1011000020913502309136022817390769F5B093DE
:101110003602A09335026EC0FB0140E050E001C0F2
:10112000FC01EA17FB0730F482819381AF0100973D
:10113000B9F71FC0E9012297FB83EA83088119816F
:10114000C901800F911F8E179F0759F480819181EB
:10115000800F911F029699838883828193819B835C
:101160008A834115510529F4B0933802A0933702C0
:1011700041C0FA01B383A283C191D191EC0FFD1F4D
:10118000AE17BF0781F4F901929182918C0F9D1FD8
:101190000296DA0111969C938E9382819381139625
:1011A0009C938E931297E0E0F0E002C0FB01BC013B
:1011B000DB0112968D919C9113970097B9F7CB01A3
:1011C00002962D913C911197820F931F2091350229
:1011D000309136022817390769F4309729F41092B4
:1011E00038021092370202C01382128270933602C4
:1011F00060933502DF91CF911F910F910895F8947C
:02120000FFCF1E
:1012020000FF000100000001000000000000FFFFDD
:0A1212004F4B0000003902200000DD
:00000001FF
