:1000000019C033C032C031C030C02FC02EC02DC087
:100010002CC02BC02AC029C028C027C026C025C09C
:1000200024C023C087C221C020C01FC01EC01DC065
:100030001CC01BC011241FBECFEFD2E0DEBFCDBF5E
:1000400011E0A0E0B1E0EAECF9E002C005900D9209
:10005000AA33B107D9F711E0AAE3B1E001C01D92BC
:10006000AB39B107E1F79DD1AEC4CACF1092B90048
:10007000E8EBF0E080E28083908181E09B3008F43F
:1000800080E0089594EA9093BC00ECEBF0E090815E
:100090009923ECF79091B900987F983011F0903146
:1000A00071F48093BB0084E88093BC00ECEBF0E03B
:1000B00080818823ECF78091B90081E0089580E089
:1000C000089584E98093BC00ECEBF0E0808184FD2E
:1000D000FDCF08958093BB0084E88093BC00ECEBD7
:1000E000F0E080818823ECF79091B900987F81E05F
:1000F000983209F480E0089584EC8093BC00ECEB26
:10010000F0E080818823ECF78091BB00089584E8BB
:100110008093BC00ECEBF0E080818823ECF78091C9
:10012000BB000895CF93DF93D82FC62F80E091E0D6
:10013000E0D184EC60E0A6DF882331F489E091E02F
:10014000D8D1BFDF80E009C08D2FC4DF8C2FC2DF84
:10015000B8DF87E191E0CDD181E0DF91CF910895C3
:1001600060EA76E881E090E081DF882321F080E09A
:1001700060E0D8DF089580E008950F931F93CF9338
:10018000DF93082F162FEA0184EC60E07BDF8823E1
:1001900019F497DF80E01EC0123009F40068802F48
:1001A00099DF85EC61E06EDF882319F48ADF80E057
:1001B00011C0113019F4A0DF88830AC0123029F46D
:1001C0009BDF888399DF898303C07BDF80E002C0E7
:1001D00078DF81E0DF91CF911F910F910895CF9348
:1001E000DF9300D0CDB7DEB780E064E09BDF8823EB
:1001F00031F481E291E07DD180E090E020C08FE099
:1002000062E0AE014F5F5F4FB8DF8823B1F081E459
:1002100090E067D1898190E064D18A8190E061D1DA
:100220008AE090E05ED18DE090E05BD1398120E002
:100230008A8190E0822B932B02C080E090E00F90A7
:100240000F90DF91CF91089580E090E0A5D11092BA
:10025000300110922F0181E0809331010895809147
:100260002F0190913001883C910548F088EC90E096
:100270009093300180932F018FEF80933101809113
:100280002F0190913001009719F481E080933101A2
:1002900080912F01909130017FD1A1DF80913101B8
:1002A00090E0880F991F20912F0130913001820F2B
:1002B000931F9093300180932F0108950895109219
:1002C0003A0180E895E2E3D081E0089580919901B8
:1002D00090919A010895CF93C82F82E002D18C2F7C
:1002E00000D1CE3451F0CF3459F490913E0199238E
:1002F00021F080E08F5F8917E9F780913E01F1D00E
:1003000080E0CF91089590913A019330D1F09430EC
:1003100028F4913069F0923068F407C09530F1F01C
:100320009530B0F09630C9F521C0823019F416C06E
:100330008230A1F0982F9250923080F080933B0150
:1003400004C0982F9250923048F080933C0104C032
:10035000982F9250923010F080933D01833021F419
:1003600086E080933A0102C010923A0180913B01ED
:10037000B2DF90913C0180E0009749F481E090E089
:1003800020913D01222329F480E090E002C081E029
:1003900090E090939A018093990110923A0181E044
:1003A0000895CF93DF9300D00F92CDB7DEB7F894C6
:1003B00041D08823E9F0D4DE8823D1F080DFDE014C
:1003C0001196E6E3F1E083E001900D928150E1F7B0
:1003D000CE0101968ED082E03CD08FEF99E6A8E165
:1003E00081509040A040E1F700C00000F8DE15C049
:1003F00066DFDE011196E6E3F1E083E001900D9205
:100400008150E1F7CE01019674D080E090E00F902A
:100410000F900F90DF91CF91089582E01AD08FEF67
:1004200099E6A8E181509040A040E1F700C00000AB
:10043000D6DEF3CF8FEF84B987B98AB915B818B86B
:100440001BB881E00895882311F0289A0895289810
:100450000895CF93C82F8823C1F081E0F4DF8FEF98
:1004600092E5A7E081509040A040E1F700C0000075
:1004700080E0E9DF8FEF91EEA4E081509040A04052
:10048000E1F700C00000C15041F7CF910895E0ECC2
:10049000F0E020812D7F20839C0140E050E060E26D
:1004A00071EA87E090E052D2CA01B9016150704010
:1004B000804090405CD12DD17093C5006093C40002
:1004C00088E18093C1008EE08093C2008FEF99E6AF
:1004D000A8E181509040A040E1F700C0000081E019
:1004E0000895E0ECF0E0908195FFFDCF8093C60089
:1004F00008950F931F93CF938C01FC018081882373
:1005000049F0C0E0EEDFCF5FF801EC0FF11D808114
:100510008823C1F78AE0E5DF8DE0E3DFCF911F910B
:100520000F910895E0ECF0E0808184FFFDCF809191
:10053000C60008951F920F920FB60F9211242F93A9
:100540003F934F935F936F937F938F939F93AF935B
:10055000BF93EF93FF938091C600D5DEFF91EF919B
:10056000BF91AF919F918F917F916F915F914F91CB
:100570003F912F910F900FBE0F901F901895809173
:10058000C00084FF08C0A6ECB0E0E0ECF0E08C9185
:10059000808184FDFCCF08958F929F92AF92BF928D
:1005A000CF92DF92EF92FF926B017C016091860007
:1005B0007091870080E090E0D8D04B015C01C701CA
:1005C000B60120E030E040E251E45DD120E030E8C7
:1005D00049E054E43AD09B01AC01C501B40134D0E8
:1005E00098D082E06632780710F466E272E089E023
:1005F0006F32780710F06EE279E0709389006093B3
:100600008800FF90EF90DF90CF90BF90AF909F90C9
:100610008F9008958AB18FEF8AB9E0E8F0E0808189
:1006200082688083E1E8F0E08081896180838FE7E0
:100630009EE3909387008093860060E070E084EBF7
:1006400092E4AADF81E008955058BB27AA270ED074
:10065000E0C0D1D030F0D6D020F031F49F3F11F47B
:100660001EF4C6C00EF4E095E7FBBCC0E92FE2D053
:1006700080F3BA17620773078407950718F071F4BF
:100680009EF5FAC00EF4E0950B2EBA2FA02D0B01AB
:10069000B90190010C01CA01A0011124FF27591BC7
:1006A00099F0593F50F4503E68F11A16F040A22FCD
:1006B000232F342F4427585FF3CF4695379527953E
:1006C000A795F0405395C9F77EF41F16BA0B620B3D
:1006D000730B840BBAF09150A1F0FF0FBB1F661F84
:1006E000771F881FC2F70EC0BA0F621F731F841FC7
:1006F00048F4879577956795B795F7959E3F08F0ED
:10070000B3CF9395880F08F09927EE0F97958795AB
:10071000089598D088F09F5790F0B92F9927B75136
:10072000A0F0D1F0660F771F881F991F1AF0BA95B5
:10073000C9F712C0B13081F09FD0B1E008959CC0DC
:10074000672F782F8827B85F39F0B93FCCF38695AB
:1007500077956795B395D9F73EF490958095709508
:1007600061957F4F8F4F9F4F0895E89409C097FB85
:100770003EF490958095709561957F4F8F4F9F4F78
:100780009923A9F0F92F96E9BB279395F6958795BC
:1007900077956795B795F111F8CFFAF4BB0F11F47F
:1007A00060FF1BC06F5F7F4F8F4F9F4F16C0882326
:1007B00011F096E911C0772321F09EE8872F762F5C
:1007C00005C0662371F096E8862F70E060E02AF09D
:1007D0009A95660F771F881FDAF7880F9695879589
:1007E00097F9089597F99F6780E870E060E00895B1
:1007F0009FEF80EC089500240A9416161706180639
:100800000906089500240A94121613061406050614
:100810000895092E0394000C11F4882352F0BB0FA5
:1008200040F4BF2B11F460FF04C06F5F7F4F8F4F08
:100830009F4F089557FD9058440F551F59F05F3F43
:1008400071F04795880F97FB991F61F09F3F79F0F2
:1008500087950895121613061406551FF2CF469574
:10086000F1DF08C0161617061806991FF1CF8695F6
:100870007105610508940895E894BB2766277727DA
:10088000CB0197F908950BD0C4CFB5DF28F0BADFBC
:1008900018F0952309F0A6CFABCF1124EECFCADF15
:1008A000A0F3959FD1F3950F50E0551F629FF00183
:1008B000729FBB27F00DB11D639FAA27F00DB11DDC
:1008C000AA1F649F6627B00DA11D661F829F222765
:1008D000B00DA11D621F739FB00DA11D621F839FEC
:1008E000A00D611D221F749F3327A00D611D231FC2
:1008F000849F600D211D822F762F6A2F11249F5710
:1009000050408AF0E1F088234AF0EE0FFF1FBB1F32
:10091000661F771F881F91505040A9F79E3F5105D1
:1009200070F060CFAACF5F3FECF3983EDCF3869582
:1009300077956795B795F795E7959F5FC1F7FE2B7C
:10094000880F911D9695879597F9089597FB092E25
:1009500005260ED057FD04D014D00AD0001C38F460
:1009600050954095309521953F4F4F4F5F4F0895DB
:10097000F6F790958095709561957F4F8F4F9F4FBB
:100980000895A1E21A2EAA1BBB1BFD010DC0AA1FD0
:10099000BB1FEE1FFF1FA217B307E407F50720F0E8
:1009A000A21BB30BE40BF50B661F771F881F991F63
:1009B0001A9469F760957095809590959B01AC01AC
:0A09C000BD01CF010895F894FFCFA8
:1009CA0057524954452E2E2E0063616E206E6F7465
:1009DA0020777269746500454F462077726974659D
:1009EA00006572726F72206D6561737572650000C1
:0A09FA000001000000004F4B000058
:00000001FF
