:1000000019C033C032C031C030C02FC02EC02DC087
:100010002CC02BC02AC029C028C027C026C025C09C
:1000200024C023C0A5C121C020C01FC01EC01DC048
:100030001CC01BC011241FBECFEFD2E0DEBFCDBF5E
:1000400011E0A0E0B1E0E2EFF7E002C005900D9210
:10005000A230B107D9F711E0A2E0B1E001C01D92D2
:10006000A330B107E1F704D1C2C3CACF9B01AC01F1
:1000700060E072E18AE790E07DD3DA01C901409740
:10008000A109B109B695A79597958795E8EBF0E09A
:100090008083908181E09B3008F080E0089594EAAD
:1000A0009093BC00ECEBF0E090819923ECF79091F9
:1000B000B900987F983011F09031B1F4880F680F33
:1000C0006093BB0084E88093BC00ECEBF0E080819F
:1000D0008823ECF79091B900987F983139F081E04E
:1000E000903429F080E0089580E0089581E008953B
:1000F00084E98093BC00ECEBF0E080818823ECF392
:1001000008958093BB0084E88093BC00ECEBF0E0A2
:1001100080818823ECF79091B900987F81E0983234
:1001200009F480E0089584EC8093BC00ECEBF0E0EF
:1001300080818823ECF78091BB00089584E8809348
:10014000BC00ECEBF0E080818823ECF78091BB00F1
:100150000895CF93DF93D82FC62F82E660E09FDF0C
:10016000882319F4C5DF80E006C08D2FCADF8C2FED
:10017000C8DFBEDF81E0DF91CF91089560EA76E8C5
:1001800081E090E073DF882321F080E060E0E1DF30
:10019000089580E008950F931F93CF93DF93082F66
:1001A000162FEA0182E660E07ADF882319F4A0DFE7
:1001B00080E01EC0123009F40068802FA2DF82E6C2
:1001C00061E06DDF882319F493DF80E011C0113006
:1001D00019F4B4DF88830AC0123029F4A4DF8883BD
:1001E000ADDF898303C084DF80E002C081DF81E06E
:1001F000DF91CF911F910F910895CF93DF9300D09E
:10020000CDB7DEB78FE062E0AE014F5F5F4FC3DF77
:10021000882339F0398120E08A8190E0822B932B6A
:1002200002C080E090E00F900F90DF91CF91089591
:100230001092020181E0089590910201923061F0E4
:10024000933080F4992319F0913061F403C0823027
:1002500019F408C0823031F0982F9250923010F08B
:10026000809300011092020181E0089580E00895DA
:10027000CF93DF93F8943CD08823A9F1DFD0882373
:1002800091F17CDF882379F1D0E081E03AD0CD2F65
:100290006C2F70E080E090E07CD19CD08FE798E3F9
:1002A000A1E081509040A040E1F700C00000CE5F87
:1002B000C63B71F78D2F25D08FEF99E6A8E18150CD
:1002C0009040A040E1F700C0000060E070E0CB018A
:1002D00081D08FEF99E6A8E181509040A040E1F7EE
:1002E00000C00000D2CF80E090E0DF91CF91089570
:1002F0008FEF84B987B98AB915B818B81BB881E0EF
:100300000895882311F0289A089528980895E0EC1C
:10031000F0E02081226020839C0140E050E060E218
:1003200071EA87E090E048D2CA01B901615070409B
:100330008040904030D101D11092C5006093C4003C
:1003400088E18093C1008EE08093C20081E008952F
:10035000E0ECF0E0908195FFFDCF8093C60008951A
:10036000E0ECF0E0808184FFFDCF8091C60008952D
:100370001F920F920FB60F9211242F933F934F931A
:100380005F936F937F938F939F93AF93BF93EF93FD
:10039000FF938091C60050DFFF91EF91BF91AF9125
:1003A0009F918F917F916F915F914F913F912F918D
:1003B0000F900FBE0F901F9018958091C00084FF82
:1003C00008C0A6ECB0E0E0ECF0E08C91808184FD08
:1003D000FCCF08958F929F92AF92BF92CF92DF92FF
:1003E000EF92FF926B017C01609186007091870013
:1003F00080E090E0CED04B015C01C701B60120E067
:1004000030E040E251E453D120E030E849E054E4E8
:1004100030D09B01AC01C501B4012AD08ED0DC01E3
:10042000CB019093890080938800FF90EF90DF903C
:10043000CF90BF90AF909F908F9008958AB18FEF2B
:100440008AB9E0E8F0E0808182688083E1E8F0E04A
:100450008081896180838FE79EE3909387008093FA
:10046000860060E070E084EB92E4B4DF81E0089500
:100470005058BB27AA270ED0E0C0D1D030F0D6D03C
:1004800020F031F49F3F11F41EF4C6C00EF4E09545
:10049000E7FBBCC0E92FE2D080F3BA17620773070D
:1004A0008407950718F071F49EF5FAC00EF4E095F4
:1004B0000B2EBA2FA02D0B01B90190010C01CA011E
:1004C000A0011124FF27591B99F0593F50F4503EC9
:1004D00068F11A16F040A22F232F342F4427585FBB
:1004E000F3CF469537952795A795F0405395C9F7D3
:1004F0007EF41F16BA0B620B730B840BBAF091508B
:10050000A1F0FF0FBB1F661F771F881FC2F70EC029
:10051000BA0F621F731F841F48F4879577956795FC
:10052000B795F7959E3F08F0B3CF9395880F08F0E5
:100530009927EE0F97958795089598D088F09F5743
:1005400090F0B92F9927B751A0F0D1F0660F771F1F
:10055000881F991F1AF0BA95C9F712C0B13081F0FF
:100560009FD0B1E008959CC0672F782F8827B85F8F
:1005700039F0B93FCCF3869577956795B395D9F760
:100580003EF490958095709561957F4F8F4F9F4F6A
:100590000895E89409C097FB3EF490958095709576
:1005A00061957F4F8F4F9F4F9923A9F0F92F96E9BF
:1005B000BB279395F695879577956795B795F11134
:1005C000F8CFFAF4BB0F11F460FF1BC06F5F7F4FD1
:1005D0008F4F9F4F16C0882311F096E911C07723E3
:1005E00021F09EE8872F762F05C0662371F096E8EC
:1005F000862F70E060E02AF09A95660F771F881FBB
:10060000DAF7880F9695879597F9089597F99F6778
:1006100080E870E060E008959FEF80EC089500248A
:100620000A941616170618060906089500240A9457
:1006300012161306140605060895092E0394000CDD
:1006400011F4882352F0BB0F40F4BF2B11F460FF6C
:1006500004C06F5F7F4F8F4F9F4F089557FD905895
:10066000440F551F59F05F3F71F04795880F97FB76
:10067000991F61F09F3F79F0879508951216130630
:100680001406551FF2CF4695F1DF08C0161617065F
:100690001806991FF1CF8695710561050894089594
:1006A000E894BB2766277727CB0197F908950BD0ED
:1006B000C4CFB5DF28F0BADF18F0952309F0A6CF34
:1006C000ABCF1124EECFCADFA0F3959FD1F3950FE6
:1006D00050E0551F629FF001729FBB27F00DB11DC6
:1006E000639FAA27F00DB11DAA1F649F6627B00D56
:1006F000A11D661F829F2227B00DA11D621F739F3F
:10070000B00DA11D621F839FA00D611D221F749F4C
:100710003327A00D611D231F849F600D211D822F93
:10072000762F6A2F11249F5750408AF0E1F08823DA
:100730004AF0EE0FFF1FBB1F661F771F881F9150E7
:100740005040A9F79E3F510570F060CFAACF5F3FA0
:10075000ECF3983EDCF3869577956795B795F7951A
:10076000E7959F5FC1F7FE2B880F911D96958795A2
:1007700097F90895A1E21A2EAA1BBB1BFD010DC01B
:10078000AA1FBB1FEE1FFF1FA217B307E407F50741
:1007900020F0A21BB30BE40BF50B661F771F881F1D
:1007A000991F1A9469F760957095809590959B01B3
:1007B000AC01BD01CF01089597FB092E05260ED08F
:1007C00057FD04D0D7DF0AD0001C38F4509540956F
:1007D000309521953F4F4F4F5F4F0895F6F7909515
:1007E0008095709561957F4F8F4F9F4F0895F89436
:0207F000FFCF39
:0207F200020003
:00000001FF
