:1000000019C033C032C031C030C02FC02EC02DC087
:100010002CC02BC02AC029C028C027C026C025C09C
:1000200024C023C0A2C221C020C01FC01EC01DC04A
:100030001CC01BC011241FBECFEFD2E0DEBFCDBF5E
:1000400011E0A0E0B1E0E0E0FAE002C005900D921E
:10005000A431B107D9F711E0A4E1B1E001C01D92CC
:10006000A837B107E1F7C4D1C9C4CACF1092B9000B
:10007000E8EBF0E080E28083908181E09B3008F43F
:1000800080E00895CF93DF93880F682BECEBF0E0CE
:1000900024EAA9EBB0E0CBEBD0E034E884E920839C
:1000A00090819923ECF79C91987F983011F09031D2
:1000B00081F46883308390819923ECF79C91987F39
:1000C000903211F0983539F48083908194FDFDCF02
:1000D000E6CF80E001C081E0DF91CF91089584E90F
:1000E0008093BC00ECEBF0E0808184FDFDCF0895AF
:1000F0008093BB0084E88093BC00ECEBF0E080814F
:100100008823ECF79091B900987F81E0983209F448
:1001100080E0089584EC8093BC00ECEBF0E08081FB
:100120008823ECF78091BB00089584E88093BC009D
:10013000ECEBF0E080818823ECF78091BB00089520
:1001400080911401909115010895CF93DF93D82FDA
:10015000C62F82E660E096DF882319F4C0DF80E0D6
:1001600006C08D2FC5DF8C2FC3DFB9DF81E0DF91A3
:10017000CF91089560EA76E881E090E077DF882308
:1001800021F080E060E0E1DF089580E008950F93C2
:100190001F93CF93DF93082F162FEA0182E660E0CA
:1001A00071DF882319F49BDF80E01FC0123009F44F
:1001B0000068802F9DDF93DF82E661E063DF8823A4
:1001C00019F48DDF80E011C0113019F4A3DF8883AA
:1001D0000AC0123029F49EDF88839CDF898303C024
:1001E0007EDF80E002C07BDF81E0DF91CF911F9155
:1001F0000F910895CF93DF9300D0CDB7DEB780E0A5
:1002000064E0A3DF882301F18FE39CE90197F1F714
:1002100000C000008FE062E0AE014F5F5F4FB7DFCC
:100220008823A9F0998180E02A8130E0822B932BEA
:10023000909315018093140180E091E075D1809135
:1002400014019091150105C080E090E002C080E0AB
:1002500090E00F900F90DF91CF91089560E070E0F3
:10026000CB01B5D110920B0110920A0181E080936D
:100270000C010895BFDF8FEF94E3ACE08150904014
:10028000A040E1F700C00000089508951092160103
:1002900080E09BE413D181E00895CF93C82F81E0E3
:1002A00090E0E8D080911601823001F1833030F483
:1002B000882361F0813009F051C00FC0843049F1CA
:1002C000843008F1853009F049C029C0C23009F0F6
:1002D00047C081E08093160143C0C23021F482E020
:1002E000809316013DC0109216013AC08C2F8250A7
:1002F000823018F41092160133C0C093170183E0C6
:10030000809316012DC0C093180184E080931601DC
:1003100027C0C093190185E08093160121C0C33026
:10032000D1F481E080931A019091180180E0009748
:1003300049F481E090E020911901222329F480E022
:1003400090E002C081E090E0909377018093760185
:100350001092160105C01092160102C010921601EB
:1003600080E090E087D081E0CF9108958091760180
:10037000909177010895CF93C82F82E0CDD082E08D
:10038000CBD08C2FC9D0CE3491F0CF3419F0CA34F1
:10039000E9F413C080911B01880FBED090911B011E
:1003A0009923B1F080E08F5F8917E9F711C081E0F0
:1003B000B3D080911B01B0D00BC082E0ADD0C0DEC5
:1003C000C82F892FA9D08C2FA7D002C080E002C0EF
:1003D00083E0A2D0CF91089580911A01882339F04B
:1003E00080911701C8DF1092170110921A01089529
:1003F0000F931F93CF93DF9300D00F92CDB7DEB74B
:10040000F8942FD0882331F0B5DE882331F001E055
:1004100010E005C000E010E002C000E010E036DFB0
:100420001DDF7894DE011196E1E1F1E083E00190B7
:100430000D928150E1F7CE01019676D0011511059C
:1004400019F0CADF17DF0AC080E090E00F900F902C
:100450000F90DF91CF911F910F910895BDDF0ADFBB
:10046000FDCF8FEF84B987B98AB915B818B81BB812
:1004700081E00895882311F0289A08952898089516
:10048000CF93C82F8823C1F081E0F4DF8FEF92E58E
:10049000A7E081509040A040E1F700C0000080E05C
:1004A000E9DF8FEF91EEA4E081509040A040E1F7AA
:1004B00000C00000C15041F7CF910895E0ECF0E09A
:1004C00020812D7F20839C0140E050E060E271EAB2
:1004D00087E090E056D2CA01B90161507040804077
:1004E000904060D131D17093C5006093C400E1ECBD
:1004F000F0E088E180838EE08093C2008081806894
:1005000080838FEF99E6A8E181509040A040E1F709
:1005100000C0000081E00895E0ECF0E0908195FFDC
:10052000FDCF8093C60008950F931F93CF938C0146
:10053000FC018081882349F0C0E0EEDFCF5FF80145
:10054000EC0FF11D80818823C1F78AE0E5DF8DE0A3
:10055000E3DFCF911F910F910895E0ECF0E08081EF
:1005600084FFFDCF8091C60008951F920F920FB6B1
:100570000F9211242F933F934F935F936F937F9329
:100580008F939F93AF93BF93EF93FF938091C60098
:1005900084DEFF91EF91BF91AF919F918F917F91F9
:1005A0006F915F914F913F912F910F900FBE0F90E0
:1005B0001F9018958091C00084FF08C0A6ECB0E0A1
:1005C000E0ECF0E08C91808184FDFCCF08958F9267
:1005D0009F92AF92BF92CF92DF92EF92FF926B0108
:1005E0007C01609186007091870080E090E0D8D017
:1005F0004B015C01C701B60120E030E040E251E46C
:100600005DD120E030E849E054E43AD09B01AC01F0
:10061000C501B40134D098D082E06632780710F476
:1006200066E272E089E06F32780710F06EE279E0FE
:100630007093890060938800FF90EF90DF90CF90D7
:10064000BF90AF909F908F9008958AB18FEF8AB935
:10065000E0E8F0E0808182688083E1E8F0E080817A
:10066000896180838FE79EE3909387008093860063
:1006700060E070E084EB92E4AADF81E008955058D6
:10068000BB27AA270ED0E0C0D1D030F0D6D020F0C2
:1006900031F49F3F11F41EF4C6C00EF4E095E7FB61
:1006A000BCC0E92FE2D080F3BA1762077307840752
:1006B000950718F071F49EF5FAC00EF4E0950B2E34
:1006C000BA2FA02D0B01B90190010C01CA01A001A4
:1006D0001124FF27591B99F0593F50F4503E68F1FF
:1006E0001A16F040A22F232F342F4427585FF3CF40
:1006F000469537952795A795F0405395C9F77EF411
:100700001F16BA0B620B730B840BBAF09150A1F059
:10071000FF0FBB1F661F771F881FC2F70EC0BA0FDF
:10072000621F731F841F48F4879577956795B79567
:10073000F7959E3F08F0B3CF9395880F08F099275F
:10074000EE0F97958795089598D088F09F5790F071
:10075000B92F9927B751A0F0D1F0660F771F881FE6
:10076000991F1AF0BA95C9F712C0B13081F09FD025
:10077000B1E008959CC0672F782F8827B85F39F0C3
:10078000B93FCCF3869577956795B395D9F73EF445
:1007900090958095709561957F4F8F4F9F4F0895ED
:1007A000E89409C097FB3EF490958095709561950B
:1007B0007F4F8F4F9F4F9923A9F0F92F96E9BB27C1
:1007C0009395F695879577956795B795F111F8CF3D
:1007D000FAF4BB0F11F460FF1BC06F5F7F4F8F4FA8
:1007E0009F4F16C0882311F096E911C0772321F09E
:1007F0009EE8872F762F05C0662371F096E8862F36
:1008000070E060E02AF09A95660F771F881FDAF78C
:10081000880F9695879597F9089597F99F6780E8CF
:1008200070E060E008959FEF80EC089500240A9442
:100830001616170618060906089500240A941216BB
:100840001306140605060895092E0394000C11F4EE
:10085000882352F0BB0F40F4BF2B11F460FF04C09B
:100860006F5F7F4F8F4F9F4F089557FD9058440FF4
:10087000551F59F05F3F71F04795880F97FB991FFF
:1008800061F09F3F79F087950895121613061406BC
:10089000551FF2CF4695F1DF08C016161706180649
:1008A000991FF1CF86957105610508940895E89424
:1008B000BB2766277727CB0197F908950BD0C4CFC4
:1008C000B5DF28F0BADF18F0952309F0A6CFABCF3B
:1008D0001124EECFCADFA0F3959FD1F3950F50E01E
:1008E000551F629FF001729FBB27F00DB11D639FE2
:1008F000AA27F00DB11DAA1F649F6627B00DA11D88
:10090000661F829F2227B00DA11D621F739FB00D2D
:10091000A11D621F839FA00D611D221F749F33279D
:10092000A00D611D231F849F600D211D822F762F36
:100930006A2F11249F5750408AF0E1F088234AF033
:10094000EE0FFF1FBB1F661F771F881F915050407F
:10095000A9F79E3F510570F060CFAACF5F3FECF33F
:10096000983EDCF3869577956795B795F795E7956B
:100970009F5FC1F7FE2B880F911D9695879597F97C
:10098000089597FB092E05260ED057FD04D014D0EC
:100990000AD0001C38F450954095309521953F4F72
:1009A0004F4F5F4F0895F6F790958095709561953C
:1009B0007F4F8F4F9F4F0895A1E21A2EAA1BBB1B9A
:1009C000FD010DC0AA1FBB1FEE1FFF1FA217B3071B
:1009D000E407F50720F0A21BB30BE40BF50B661F31
:1009E000771F881F991F1A9469F7609570958095F5
:1009F00090959B01AC01BD01CF010895F894FFCF04
:100A00004C49444152204F4B21000000010000009E
:040A1000004F4B0048
:00000001FF
