:1000000019C033C032C031C030C02FC02EC02DC087
:100010002CC02BC02AC029C028C027C026C025C09C
:1000200024C023C096C221C020C01FC01EC01DC056
:100030001CC01BC011241FBECFEFD2E0DEBFCDBF5E
:1000400011E0A0E0B1E0E8EEF9E002C005900D9209
:10005000AE36B107D9F711E0AEE6B1E001C01D92AE
:10006000AF3CB107E1F7ACD1BDC4CACF1092B90023
:10007000E8EBF0E080E28083908181E09B3008F43F
:1000800080E0089594EA9093BC00ECEBF0E090815E
:100090009923ECF79091B900987F983011F0903146
:1000A00071F48093BB0084E88093BC00ECEBF0E03B
:1000B00080818823ECF78091B90081E0089580E089
:1000C000089584E98093BC00ECEBF0E0808184FD2E
:1000D000FDCF08958093BB0084E88093BC00ECEBD7
:1000E000F0E080818823ECF79091B900987F81E05F
:1000F000983209F480E0089584EC8093BC00ECEB26
:10010000F0E080818823ECF78091BB00089584E8BB
:100110008093BC00ECEBF0E080818823ECF78091C9
:10012000BB000895CF93DF93D82FC62F80E091E0D6
:10013000EFD184EC60E0A6DF882331F489E091E020
:10014000E7D1BFDF80E009C08D2FC4DF8C2FC2DF75
:10015000B8DF87E191E0DCD181E0DF91CF910895B4
:1001600060EA76E881E090E081DF882321F080E09A
:1001700060E0D8DF089580E008950F931F93CF9338
:10018000DF93082F162FEA0181E291E0C1D184ECC0
:1001900060E078DF882331F494DF89E291E0B8D120
:1001A00080E027C083E391E0B3D1123009F4006806
:1001B000802F90DF85EC61E065DF882331F481DFFB
:1001C0008EE391E0A5D180E014C0113019F494DFE2
:1001D00088830AC0123029F48FDF88838DDF8983FA
:1001E00003C06FDF80E005C06CDF8DE491E090D14B
:1001F00081E0DF91CF911F910F910895CF93DF930D
:1002000000D0CDB7DEB780E064E08CDF882331F426
:1002100086E591E07DD180E090E020C08FE062E053
:10022000AE014F5F5F4FA9DF8823B1F081E490E01A
:1002300067D1898190E064D18A8190E061D18AE0C0
:1002400090E05ED18DE090E05BD1398120E08A8141
:1002500090E0822B932B02C080E090E00F900F90F3
:10026000DF91CF91089580E090E0A5D110926501D3
:100270001092640181E08093660108958091640189
:1002800090916501883C910548F088EC90E090934E
:100290006501809364018FEF809366018091640112
:1002A00090916501009719F481E080936601809137
:1002B0006401909165017FD1A1DF8091660190E09A
:1002C000880F991F2091640130916501820F931F5F
:1002D00090936501809364010895089510926E01D2
:1002E00080E895E2E3D081E008958091CD0190917E
:1002F000CE010895CF93C82F82E002D18C2F00D178
:10030000CE3451F0CF3459F490917201992321F0F9
:1003100080E08F5F8917E9F780917201F1D080E06A
:10032000CF91089590916E019330D1F0943028F4DC
:10033000913069F0923068F407C09530F1F0953053
:10034000B0F09630C9F521C0823019F416C0823061
:10035000A1F0982F9250923080F080936F0104C0EA
:10036000982F9250923048F08093700104C0982FDB
:100370009250923010F080937101833021F486E026
:1003800080936E0102C010926E0180916F01B2DF06
:100390009091700180E0009749F481E090E0209115
:1003A0007101222329F480E090E002C081E090E016
:1003B0009093CE018093CD0110926E0181E008955B
:1003C000CF93DF9300D00F92CDB7DEB7F89441D032
:1003D0008823E9F0C5DE8823D1F080DFDE011196A5
:1003E000EBE6F1E083E001900D928150E1F7CE0160
:1003F00001968ED082E03CD08FEF99E6A8E1815043
:100400009040A040E1F700C00000F8DE15C066DFB4
:10041000DE011196EBE6F1E083E001900D92815050
:10042000E1F7CE01019674D080E090E00F900F903C
:100430000F90DF91CF91089582E01AD08FEF99E667
:10044000A8E181509040A040E1F700C00000D6DE56
:10045000F3CF8FEF84B987B98AB915B818B81BB82C
:1004600081E00895882311F0289A08952898089526
:10047000CF93C82F8823C1F081E0F4DF8FEF92E59E
:10048000A7E081509040A040E1F700C0000080E06C
:10049000E9DF8FEF91EEA4E081509040A040E1F7BA
:1004A00000C00000C15041F7CF910895E0ECF0E0AA
:1004B00020812D7F20839C0140E050E060E271EAC2
:1004C00087E090E052D2CA01B9016150704080408B
:1004D00090405CD12DD17093C5006093C40088E139
:1004E0008093C1008EE08093C2008FEF99E6A8E16F
:1004F00081509040A040E1F700C0000081E00895E5
:10050000E0ECF0E0908195FFFDCF8093C600089568
:100510000F931F93CF938C01FC018081882349F0B6
:10052000C0E0EEDFCF5FF801EC0FF11D8081882382
:10053000C1F78AE0E5DF8DE0E3DFCF911F910F91F6
:100540000895E0ECF0E0808184FFFDCF8091C6004B
:1005500008951F920F920FB60F9211242F933F937D
:100560004F935F936F937F938F939F93AF93BF93BB
:10057000EF93FF938091C600D5DEFF91EF91BF917D
:10058000AF919F918F917F916F915F914F913F912B
:100590002F910F900FBE0F901F9018958091C00063
:1005A00084FF08C0A6ECB0E0E0ECF0E08C91808124
:1005B00084FDFCCF08958F929F92AF92BF92CF920D
:1005C000DF92EF92FF926B017C0160918600709147
:1005D000870080E090E0D8D04B015C01C701B601F4
:1005E00020E030E040E251E45DD120E030E849E035
:1005F00054E43AD09B01AC01C501B40134D098D089
:1006000082E06632780710F466E272E089E06F32C9
:10061000780710F06EE279E07093890060938800AB
:10062000FF90EF90DF90CF90BF90AF909F908F9012
:1006300008958AB18FEF8AB9E0E8F0E0808182689E
:100640008083E1E8F0E08081896180838FE79EE329
:10065000909387008093860060E070E084EB92E4E2
:10066000AADF81E008955058BB27AA270ED0E0C02A
:10067000D1D030F0D6D020F031F49F3F11F41EF4E9
:10068000C6C00EF4E095E7FBBCC0E92FE2D080F3D2
:10069000BA17620773078407950718F071F49EF57F
:1006A000FAC00EF4E0950B2EBA2FA02D0B01B90164
:1006B00090010C01CA01A0011124FF27591B99F0D8
:1006C000593F50F4503E68F11A16F040A22F232FE4
:1006D000342F4427585FF3CF469537952795A79534
:1006E000F0405395C9F77EF41F16BA0B620B730BDB
:1006F000840BBAF09150A1F0FF0FBB1F661F771F4C
:10070000881FC2F70EC0BA0F621F731F841F48F400
:10071000879577956795B795F7959E3F08F0B3CF86
:100720009395880F08F09927EE0F97958795089570
:1007300098D088F09F5790F0B92F9927B751A0F023
:10074000D1F0660F771F881F991F1AF0BA95C9F765
:1007500012C0B13081F09FD0B1E008959CC0672FE6
:10076000782F8827B85F39F0B93FCCF38695779515
:100770006795B395D9F73EF49095809570956195FE
:100780007F4F8F4F9F4F0895E89409C097FB3EF429
:1007900090958095709561957F4F8F4F9F4F9923CE
:1007A000A9F0F92F96E9BB279395F695879577954C
:1007B0006795B795F111F8CFFAF4BB0F11F460FF0C
:1007C0001BC06F5F7F4F8F4F9F4F16C0882311F064
:1007D00096E911C0772321F09EE8872F762F05C078
:1007E000662371F096E8862F70E060E02AF09A9513
:1007F000660F771F881FDAF7880F9695879597F908
:10080000089597F99F6780E870E060E008959FEF92
:1008100080EC089500240A94161617061806090697
:10082000089500240A941216130614060506089566
:10083000092E0394000C11F4882352F0BB0F40F4EE
:10084000BF2B11F460FF04C06F5F7F4F8F4F9F4F2E
:10085000089557FD9058440F551F59F05F3F71F0B0
:100860004795880F97FB991F61F09F3F79F0879517
:100870000895121613061406551FF2CF4695F1DFA0
:1008800008C0161617061806991FF1CF8695710530
:10089000610508940895E894BB2766277727CB0164
:1008A00097F908950BD0C4CFB5DF28F0BADF18F060
:1008B000952309F0A6CFABCF1124EECFCADFA0F36A
:1008C000959FD1F3950F50E0551F629FF001729FE5
:1008D000BB27F00DB11D639FAA27F00DB11DAA1F04
:1008E000649F6627B00DA11D661F829F2227B00D51
:1008F000A11D621F739FB00DA11D621F839FA00DDC
:10090000611D221F749F3327A00D611D231F849F2B
:10091000600D211D822F762F6A2F11249F57504082
:100920008AF0E1F088234AF0EE0FFF1FBB1F661F1D
:10093000771F881F91505040A9F79E3F510570F0D6
:1009400060CFAACF5F3FECF3983EDCF386957795B6
:100950006795B795F795E7959F5FC1F7FE2B880FD1
:10096000911D9695879597F9089597FB092E052671
:100970000ED057FD04D014D00AD0001C38F4509586
:100980004095309521953F4F4F4F5F4F0895F6F7B3
:1009900090958095709561957F4F8F4F9F4F0895EB
:1009A000A1E21A2EAA1BBB1BFD010DC0AA1FBB1F73
:1009B000EE1FFF1FA217B307E407F50720F0A21BE5
:1009C000B30BE40BF50B661F771F881F991F1A9452
:1009D00069F760957095809590959B01AC01BD017C
:0809E000CF010895F894FFCF48
:1009E80057524954452E2E2E0063616E206E6F7447
:1009F80020777269746500454F462077726974657F
:100A080000524541442E2E2E004932432045727231
:100A18006F720073656E6420427974657300457265
:100A2800726F723A206E6F207265616400454F469E
:100A38002072656164006572726F72206D65617302
:0E0A480075726500000001000000004F4B00B9
:00000001FF
