:1000000019C033C032C031C030C02FC02EC02DC087
:100010002CC02BC02AC029C028C027C026C025C09C
:1000200024C023C0CAC221C020C01FC01EC01DC022
:100030001CC01BC011241FBECFEFD2E0DEBFCDBF5E
:1000400011E0A0E0B1E0EAEDFFE002C005900D9202
:10005000A431B107D9F711E0A4E1B1E001C01D92CC
:10006000A537B107E1F78BD1B6C7CACF1092B90057
:10007000E8EBF0E080E28083908181E09B3008F43F
:1000800080E0089594EA9093BC00ECEBF0E090815E
:100090009923ECF79091B900987F983011F0903146
:1000A00071F48093BB0084E88093BC00ECEBF0E03B
:1000B00080818823ECF78091B90081E0089580E089
:1000C000089584E98093BC00ECEBF0E0808184FD2E
:1000D000FDCF08958093BB0084E88093BC00ECEBD7
:1000E000F0E080818823ECF79091B900987F81E05F
:1000F000983209F480E0089584EC8093BC00ECEB26
:10010000F0E080818823ECF78091BB00089584E8BB
:100110008093BC00ECEBF0E080818823ECF78091C9
:10012000BB000895CF93DF93D82FC62F84EC60E0F7
:10013000A9DF882319F4C5DF80E00FC08D2FCADF47
:100140008C2FC8DFBEDF8FEF90E7A2E08150904098
:10015000A040E1F700C0000081E0DF91CF91089559
:1001600060EA76E881E090E081DF882321F080E09A
:1001700060E0D8DF089580E008950F931F93CF9338
:10018000DF93082F162FEA0184EC60E07BDF8823E1
:1001900019F497DF80E01EC0123009F40068802F48
:1001A00099DF85EC61E06EDF882319F48ADF80E057
:1001B00011C0113019F4A0DF88830AC0123029F46D
:1001C0009BDF888399DF898303C07BDF80E002C0E7
:1001D00078DF81E0DF91CF911F910F910895CF9348
:1001E000DF9300D0CDB7DEB780E064E09BDF8823EB
:1001F00079F08FE062E0AE014F5F5F4FBEDF882392
:1002000051F0398120E08A8190E0822B932B05C048
:1002100080E090E002C080E090E00F900F90DF91CE
:10022000CF91089580E090E0FAD1109201011092F0
:10023000000181E080930201089580910001909176
:100240000101883C910548F088EC90E09093010111
:10025000809300018FEF80930201809100019091C3
:100260000101009719F481E080930201809100015F
:1002700090910101D4D1B3DF8091020190E0880F09
:10028000991F2091000130910101820F931F9093DB
:10029000010180930001089508951092140180E8EF
:1002A00095E238D181E008958091730190917401B5
:1002B0000895CF93C82F82E057D18C2F55D1CE34DB
:1002C00051F0CF3459F490911801992321F080E036
:1002D0008F5F8917E9F78091180146D180E0CF91AF
:1002E0000895909114019330D1F0943028F4913016
:1002F00069F0923068F407C09530F1F09530B0F0B5
:100300009630C9F521C0823019F416C08230A1F0B0
:10031000982F9250923080F08093150104C0982F4E
:100320009250923048F08093160104C0982F92505A
:10033000923010F080931701833021F486E080938F
:10034000140102C01092140180911501B2DF909146
:10035000160180E0009749F481E090E020911701B8
:10036000222329F480E090E002C081E090E09093A5
:100370007401809373011092140181E00895EF924B
:10038000FF920F931F93CF93DF93CDB7DEB72D97D7
:100390000FB6F894DEBF0FBECDBFF8948ED0882381
:1003A00009F447C0DDDE882309F443C076DFDE01AF
:1003B0001196E0E1F1E083E001900D928150E1F7C8
:1003C000CE010196D9D082E087D08FEF99E6A8E1DF
:1003D00081509040A040E1F700C0000000DF00D055
:1003E00000D000D0EDB7FEB731968E010C5F1F4FE5
:1003F000ADB7BEB712961C930E93119727E031E06C
:10040000338322839583848321D38DB79EB7069649
:100410000FB6F8949EBF0FBE8DBFC801ADD08E0140
:100420000C5F1F4F0F2EF7E0EF2EF1E0FF2EF02DA7
:100430001CC033DFDE011196E0E1F1E083E00190C2
:100440000D928150E1F7CE01019696D080E090E0C8
:100450002D960FB6F894DEBF0FBECDBFDF91CF91C2
:100460001F910F91FF90EF90089582E035D08FEFAC
:1004700099E6A8E181509040A040E1F700C000005B
:10048000AEDE00D000D000D0EDB7FEB73196ADB7EC
:10049000BEB712961C930E931197F382E282958356
:1004A0008483D4D28DB79EB706960FB6F8949EBFBC
:1004B0000FBE8DBFC80160D0D8CF8FEF84B987B988
:1004C0008AB915B818B81BB881E00895882311F0CF
:1004D000289A089528980895CF93C82F8823C1F0AB
:1004E00081E0F4DF8FEF92E5A7E081509040A040DB
:1004F000E1F700C0000080E0E9DF8FEF91EEA4E0BB
:1005000081509040A040E1F700C00000C15041F789
:10051000CF910895E0ECF0E020812D7F20839C01B5
:1005200040E050E060E271EA87E090E052D2CA0118
:10053000B90161507040804090405CD12DD17093E2
:10054000C5006093C40088E18093C1008EE0809371
:10055000C2008FEF99E6A8E181509040A040E1F7FA
:1005600000C0000081E00895E0ECF0E0908195FF8C
:10057000FDCF8093C60008950F931F93CF938C01F6
:10058000FC018081882349F0C0E0EEDFCF5FF801F5
:10059000EC0FF11D80818823C1F78AE0E5DF8DE053
:1005A000E3DFCF911F910F910895E0ECF0E080819F
:1005B00084FFFDCF8091C60008951F920F920FB661
:1005C0000F9211242F933F934F935F936F937F93D9
:1005D0008F939F93AF93BF93EF93FF938091C60048
:1005E00080DEFF91EF91BF91AF919F918F917F91AD
:1005F0006F915F914F913F912F910F900FBE0F9090
:100600001F9018958091C00084FF08C0A6ECB0E050
:10061000E0ECF0E08C91808184FDFCCF08958F9216
:100620009F92AF92BF92CF92DF92EF92FF926B01B7
:100630007C01609186007091870080E090E0D8D0C6
:100640004B015C01C701B60120E030E040E251E41B
:100650005DD120E030E849E054E43AD09B01AC01A0
:10066000C501B40134D098D082E06632780710F426
:1006700066E272E089E06F32780710F06EE279E0AE
:100680007093890060938800FF90EF90DF90CF9087
:10069000BF90AF909F908F9008958AB18FEF8AB9E5
:1006A000E0E8F0E0808182688083E1E8F0E080812A
:1006B000896180838FE79EE3909387008093860013
:1006C00060E070E084EB92E4AADF81E00895505886
:1006D000BB27AA270ED0E0C0D1D030F0D6D020F072
:1006E00031F49F3F11F41EF4C6C00EF4E095E7FB11
:1006F000BCC0E92FE2D080F3BA1762077307840702
:10070000950718F071F49EF5FAC00EF4E0950B2EE3
:10071000BA2FA02D0B01B90190010C01CA01A00153
:100720001124FF27591B99F0593F50F4503E68F1AE
:100730001A16F040A22F232F342F4427585FF3CFEF
:10074000469537952795A795F0405395C9F77EF4C0
:100750001F16BA0B620B730B840BBAF09150A1F009
:10076000FF0FBB1F661F771F881FC2F70EC0BA0F8F
:10077000621F731F841F48F4879577956795B79517
:10078000F7959E3F08F0B3CF9395880F08F099270F
:10079000EE0F97958795089598D088F09F5790F021
:1007A000B92F9927B751A0F0D1F0660F771F881F96
:1007B000991F1AF0BA95C9F712C0B13081F09FD0D5
:1007C000B1E008959CC0672F782F8827B85F39F073
:1007D000B93FCCF3869577956795B395D9F73EF4F5
:1007E00090958095709561957F4F8F4F9F4F08959D
:1007F000E89409C097FB3EF49095809570956195BB
:100800007F4F8F4F9F4F9923A9F0F92F96E9BB2770
:100810009395F695879577956795B795F111F8CFEC
:10082000FAF4BB0F11F460FF1BC06F5F7F4F8F4F57
:100830009F4F16C0882311F096E911C0772321F04D
:100840009EE8872F762F05C0662371F096E8862FE5
:1008500070E060E02AF09A95660F771F881FDAF73C
:10086000880F9695879597F9089597F99F6780E87F
:1008700070E060E008959FEF80EC089500240A94F2
:100880001616170618060906089500240A9412166B
:100890001306140605060895092E0394000C11F49E
:1008A000882352F0BB0F40F4BF2B11F460FF04C04B
:1008B0006F5F7F4F8F4F9F4F089557FD9058440FA4
:1008C000551F59F05F3F71F04795880F97FB991FAF
:1008D00061F09F3F79F0879508951216130614066C
:1008E000551FF2CF4695F1DF08C0161617061806F9
:1008F000991FF1CF86957105610508940895E894D4
:10090000BB2766277727CB0197F908950BD0C4CF73
:10091000B5DF28F0BADF18F0952309F0A6CFABCFEA
:100920001124EECFCADFA0F3959FD1F3950F50E0CD
:10093000551F629FF001729FBB27F00DB11D639F91
:10094000AA27F00DB11DAA1F649F6627B00DA11D37
:10095000661F829F2227B00DA11D621F739FB00DDD
:10096000A11D621F839FA00D611D221F749F33274D
:10097000A00D611D231F849F600D211D822F762FE6
:100980006A2F11249F5750408AF0E1F088234AF0E3
:10099000EE0FFF1FBB1F661F771F881F915050402F
:1009A000A9F79E3F510570F060CFAACF5F3FECF3EF
:1009B000983EDCF3869577956795B795F795E7951B
:1009C0009F5FC1F7FE2B880F911D9695879597F92C
:1009D000089597FB092E05260ED057FD04D014D09C
:1009E0000AD0001C38F450954095309521953F4F22
:1009F0004F4F5F4F0895F6F79095809570956195EC
:100A00007F4F8F4F9F4F0895A1E21A2EAA1BBB1B49
:100A1000FD010DC0AA1FBB1FEE1FFF1FA217B307CA
:100A2000E407F50720F0A21BB30BE40BF50B661FE0
:100A3000771F881F991F1A9469F7609570958095A4
:100A400090959B01AC01BD01CF010895AEE0B0E0EF
:100A5000EBE2F5E097C20D891E8986E08C831A834C
:100A600009838FEF9FE79E838D83AE01475E5F4FC3
:100A7000CE0101966F89788D08D0EF81F885E00F5F
:100A8000F11F10822E96E4E099C2ADE0B0E0EAE4F6
:100A9000F5E06AC23C017D876C875A01FC01178230
:100AA0001682838181FFBBC12E010894411C511C19
:100AB000F3019381EC85FD8593FD859193FF8191F1
:100AC000FD87EC87882309F4A6C1853241F493FDA4
:100AD000859193FF8191FD87EC87853221F490E029
:100AE000B301B8D1E5CFFF24EE2410E01032B0F40A
:100AF0008B3269F08C3228F4803251F0833271F4F9
:100B00000BC08D3239F0803349F411602CC0126073
:100B1000146029C0186027C0106125C017FD2EC0C1
:100B2000282F20532A3098F416FF08C08F2D880FE5
:100B3000F82EFF0CFF0CF80EF20E15C08E2D880F4C
:100B4000E82EEE0CEE0CE80EE20E10620CC08E32B7
:100B500021F416FD60C1106406C08C3611F41068D3
:100B600002C0883659F4EC85FD8593FD859193FF8D
:100B70008191FD87EC87882309F0B8CF982F955491
:100B8000933018F09052933038F424E030E0A20E05
:100B9000B31E3FE339830FC0833631F0833781F0D2
:100BA000833509F056C021C0F5018081898322E098
:100BB00030E0A20EB31E21E0C22ED12C420113C0A0
:100BC00092E0292E312C2A0C3B1CF501808091806B
:100BD00016FF03C06F2D70E002C06FEF7FEFC401FE
:100BE0002ED16C0151011F7714C082E0282E312CC8
:100BF0002A0C3B1CF5018080918016FF03C06F2DED
:100C000070E002C06FEF7FEFC4010ED16C0110687D
:100C1000510113FD1AC005C080E290E0B3011AD162
:100C2000EA948E2D90E0C816D906B0F30EC0F401F8
:100C300017FD859117FF81914F0190E0B3010AD113
:100C4000E110EA940894C108D108C114D10479F7DD
:100C5000DFC0843611F0893649F5F50117FF07C06A
:100C600080819181A281B38124E030E008C080813D
:100C70009181AA2797FDA095BA2F22E030E0A20E1D
:100C8000B31E012F0F76B7FF08C0B095A0959095C1
:100C900081959F4FAF4FBF4F0068BC01CD01A201AE
:100CA0002AE030E003D1D82ED4183EC0853721F495
:100CB0001F7E2AE030E020C0197F8F36A9F08037F0
:100CC00020F4883509F0A7C00BC0803721F08837A1
:100CD00009F0A1C001C0106114FF09C0146007C071
:100CE00014FF08C0166006C028E030E005C020E10F
:100CF00030E002C020E132E0F50117FF07C060815B
:100D000071818281938144E050E006C060817181ED
:100D100080E090E042E050E0A40EB51EA201C6D0F3
:100D2000D82ED418012F0F7706FF09C00E7FDF14CD
:100D300030F404FF06C002FD04C00F7E02C01D2D6A
:100D400001C01F2D802F90E004FF0CC0FE01ED0DAF
:100D5000F11D2081203311F4097E09C002FF06C075
:100D60001E5F05C086789070009709F01F5F802E87
:100D7000992403FD11C000FF0CC0FD2C1E1548F482
:100D8000FE0CF11A1E2D05C080E290E0B30162D086
:100D90001F5F1E15C8F304C01E1510F4E11A01C030
:100DA000EE2484FE0EC080E390E0B30153D082FEB7
:100DB0001DC081FE03C088E590E010C088E790E088
:100DC0000DC0C40186789070009781F081FC02C04C
:100DD00080E201C08BE207FD8DE290E0B3013AD0E2
:100DE00005C080E390E0B30135D0FA94DF14C8F376
:100DF000DA94F201ED0DF11D808190E0B3012AD06B
:100E0000DD20B1F705C080E290E0B30123D0EA9481
:100E1000EE20C9F74DCEF3018681978102C08FEF96
:100E20009FEF2D96E2E1BCC0FC010590615070403F
:100E30000110D8F7809590958E0F9F1F0895FC01A3
:100E40006150704001900110D8F7809590958E0FF9
:100E50009F1F08950F931F93CF93DF938C01EB0196
:100E60008B8181FF1BC082FF0DC02E813F818C8151
:100E70009D812817390764F4E881F9810193F9838A
:100E8000E88306C0E885F985802F0995009731F43D
:100E90008E819F8101969F838E8302C00FEF1FEF8B
:100EA000C801DF91CF911F910F910895FA01AA27F0
:100EB000283051F1203181F1E8946F936E7F6E5F9D
:100EC0007F4F8F4F9F4FAF4FB1E03ED0B4E03CD04B
:100ED000670F781F891F9A1FA11D680F791F8A1F2E
:100EE000911DA11D6A0F711D811D911DA11D20D095
:100EF00009F468943F912AE0269F11243019305D4F
:100F00003193DEF6CF010895462F4770405D41933F
:100F1000B3E00FD0C9F7F6CF462F4F70405D4A338C
:100F200018F0495D31FD4052419302D0A9F7EACF54
:100F3000B4E0A6959795879577956795BA95C9F783
:100F400000976105710508959B01AC010A2E069476
:100F50005795479537952795BA95C9F7620F731F2F
:100F6000841F951FA01D08952F923F924F925F926C
:100F70006F927F928F929F92AF92BF92CF92DF92A9
:100F8000EF92FF920F931F93CF93DF93CDB7DEB70E
:100F9000CA1BDB0B0FB6F894DEBF0FBECDBF0994A2
:100FA0002A88398848885F846E847D848C849B84F9
:100FB000AA84B984C884DF80EE80FD800C811B8107
:100FC000AA81B981CE0FD11D0FB6F894DEBF0FBE36
:0A0FD000CDBFED010895F894FFCFA6
:100FDA0000000100000000446973743A202564008F
:040FEA004F4B000069
:00000001FF
