:100000000C9434000C9451000C9451000C94510049
:100010000C9451000C9451000C9451000C9451001C
:100020000C9451000C9451000C9451000C9451000C
:100030000C9451000C9451000C9451000C945100FC
:100040000C9451000C9451000C9435060C94510002
:100050000C9451000C9451000C9451000C945100DC
:100060000C9451000C94510011241FBECFEFD4E02A
:10007000DEBFCDBF11E0A0E0B1E0E0E3F4E102C0FB
:1000800005900D92A032B107D9F711E0A0E2B1E0DE
:1000900001C01D92AD3EB107E1F70E946C050C94C2
:1000A000160A0C940000FF920F931F93CF93DF93D7
:1000B0008C01F62EDC0116968C911697861709F4A2
:1000C00043C08D919C910E947D09F80182819381AA
:1000D0000E947D09CF2DD0E0CC0FDD1FCC0FDD1F9E
:1000E000CE010E94E708D8018C9311969C93CE0113
:1000F0000E94E708F80182839383FF20E9F02F2D07
:10010000215030E02F5F3F4F220F331F80E090E0FF
:10011000D801ED91FC911197E80FF91F118210821F
:100120001296ED91FC911397E80FF91F118210823E
:1001300002968217930761F7F394F801F68217820B
:100140001482158281E001C080E0DF91CF911F9180
:100150000F91FF900895CF93DF93CDB7DEB76097EF
:100160000FB6F894DEBF0FBECDBF682FCE01099643
:100170000E945300DE011196FE01399688E001903D
:100180000D928150E1F729813A814B815C816D812B
:100190007E818F81988560960FB6F894DEBF0FBE82
:1001A000CDBFDF91CF910895FC018581948198178F
:1001B00051F08F5F66810E948A0895838781815004
:1001C000878381E0089580E00895EF92FF920F9376
:1001D0001F93CF93DF93EC018B017A012C81822F47
:1001E00090E001966E8170E00E949608482F8D8104
:1001F0008417D1F030E0220F331F88819981820F5C
:10020000931FFC01118300838C8190E0880F991F5C
:100210002A813B81820F931FFC01F182E0824C8393
:100220008F818F5F8F8308C0CE010E94D400CE01E2
:10023000B801A7010E94E50081E0DF91CF911F91F5
:100240000F91FF90EF900895DC0115962C91159772
:1002500030E0220F331FED91FC911197E20FF31F55
:1002600080819181FB019183808312968D919C9175
:100270001397820F931FFC0180819181FA01918372
:100280008083CD010E94D4000895FC0181E0248187
:100290009581291380E00895FC01878108951092CB
:1002A000B900E8EBF0E080E28083908181E09B3050
:1002B00008F480E00895CF93DF9310922001880F17
:1002C000682BECEBF0E024EAA9EBB0E0CBEBD0E05C
:1002D00034E884E9208307C0909120019F5F9093C8
:1002E0002001953648F590819923B4F79C91987F29
:1002F000983011F0903111F56883308307C09091E8
:1003000020019F5F909320019536D0F4908199232E
:10031000B4F79C91987F903211F0983599F48083CE
:1003200007C0909120019F5F90932001953660F463
:10033000908194FDF6CFCECF80E007C080E005C06D
:1003400080E003C081E001C080E0DF91CF9108959B
:100350001092200184E98093BC00ECEBF0E007C030
:10036000809120018F5F80932001853618F4808171
:1003700084FDF6CF0895109220018093BB0084E89D
:100380008093BC00ECEBF0E007C0809120018F5F10
:1003900080932001853658F480818823B4F79091AA
:1003A000B900987F81E0983219F480E0089580E0E8
:1003B00008951092200184EC8093BC00ECEBF0E0F7
:1003C00007C0809120018F5F80932001853630F433
:1003D00080818823B4F78091BB00089580E0089560
:1003E0001092200184E88093BC00ECEBF0E007C0A1
:1003F000809120018F5F80932001853630F48081C9
:100400008823B4F78091BB00089580E0089580911F
:100410002101909122010895CF93DF93D82FC62F09
:1004200082E660E00E945B01882321F40E94A8011B
:1004300080E009C08D2F0E94BB018C2F0E94BB0160
:100440000E94A80181E0DF91CF91089560EA76E8EB
:1004500081E090E00E944F01882329F080E060E075
:100460000E940C02089580E008950F931F93CF938C
:10047000DF93082F162FEA0182E660E00E945B01FD
:10048000882321F40E94A80180E028C0123009F4DA
:100490000068802F0E94BB010E94A80182E661E0F3
:1004A0000E945B01882321F40E94A80180E016C00D
:1004B000113021F40E94D90188830DC0123039F423
:1004C0000E94D90188830E94D901898304C00E94B7
:1004D000A80180E003C00E94A80181E0DF91CF91D4
:1004E0001F910F910895CF93DF9300D0CDB7DEB762
:1004F00080E064E00E940C02882331F18FE59AEEDF
:100500000197F1F700C000008FE062E0AE014F5F9D
:100510005F4F0E9435028823D1F0998180E02A81C3
:1005200030E0822B932B909322018093210100973E
:1005300031F48CEB92E09093220180932101809121
:1005400021019091220105C080E090E002C080E08E
:1005500090E00F900F90DF91CF910895CF93DF93AC
:10056000CDB7DEB728970FB6F894DEBF0FBECDBF6C
:1005700060E070E0CB010E949E0610920D01109287
:100580000C0181E080930E0184E10E94AB0029837D
:100590003A834B835C836D837E838F839887A1EE40
:1005A000B1E0FE01319688E001900D928150E1F7B3
:1005B00081E028960FB6F894DEBF0FBECDBFDF9165
:1005C000CF9108952F923F924F925F926F927F92B8
:1005D0008F929F92AF92BF92CF92DF92EF92FF9253
:1005E0000F931F93CF93DF93CDB7DEB763970FB60B
:1005F000F894DEBF0FBECDBF19828FEF8A831C82B5
:1006000081E08D830F2EF3E2EF2EF1E0FF2EF02D2F
:1006100088249924839422243324A0E055245394DD
:100620000F2EF7E04F2EF02D01C04501F70181910B
:100630007F013F0190E02081AC01421B51095887A6
:100640004F8354010894A11CB11C6D817E818A8165
:10065000992787FD9095849FF001859FF00D949FC9
:10066000F00D11248981992787FD9095869F90012F
:10067000879F300D969F300D11246F01C20ED31E3F
:100680008D81992787FD9095489F8001499F100D86
:10069000589F100D11248C81992787FD9095689F94
:1006A0009001699F300D789F300D1124020F131FA8
:1006B000FBE0CF16D10494F00A3011057CF4FE0162
:1006C0003D96A0E0B1E0842D0D9001928150E1F7BC
:1006D000CE010D960E941106140102C0AA2379F1E1
:1006E0000B3011054CF18AE0C816D1043CF5C40169
:1006F00082199309969587958C01020D131DFE01B1
:100700003D96A7E0B1E085E00D9001928150E1F7C0
:10071000CE010D960E94110681E090E00E94B8057E
:10072000B801660F771FF301408181EE91E050E040
:100730000E94E500A0E003C0A52D01C0A52DF3EBAC
:10074000AF16B10409F071CF63960FB6F894DEBF0F
:100750000FBECDBFDF91CF911F910F91FF90EF9012
:10076000DF90CF90BF90AF909F908F907F906F90D1
:100770005F904F903F902F900895CF93DF939C010F
:10078000AB01C1EED1E0CE01B9010E942401CE013E
:100790000E94450191E08927DF91CF91089521E0E2
:1007A0008936920734F08856914021E089369207C5
:1007B000D4F72EEF8839920734F488599E4F2EEFE4
:1007C00088399207D4F399231CF488599E4FEAF391
:1007D0000895EF92FF921F93CF93DF93182F0E94FB
:1007E000E1047C01C0910C01D0910D01CB35D10504
:1007F00038F08C1B9D0B865A9F4F0E94CF0301C07F
:10080000CE01CA35D10538F4C7018C1B9D0B865A21
:100810009F4F0E94CF03CA35D10509F4C7019695B1
:100820008795FC01ED5DFE4F1083209113013091FF
:1008300014012817390720F49093140180931301B1
:1008400020911501309116018217930720F490939F
:10085000160180931501DF91CF911F91FF90EF90CA
:10086000089580910C0190910D01843B910558F001
:1008700084EB90E090930D0180930C018FEF8093B7
:100880000E010E94E20280910C0190910D010097EF
:1008900029F481E080930E010E94E20260910C0134
:1008A00070910D0180E090E00E9499070E949E06E1
:1008B0000E9473020E94E90380910E01992787FD2F
:1008C0009095880F991F20910C0130910D01820F96
:1008D000931F90930D0180930C0108951092D701FE
:1008E00080E09BE40E94D80581E00895CF93C82F53
:1008F00081E090E00E94B2058091D701823001F141
:10090000833030F4882361F0813009F051C00FC08A
:10091000843049F1843008F1853009F049C029C09C
:10092000C23009F047C081E08093D70143C0C23094
:1009300021F482E08093D7013DC01092D7013AC0E4
:100940008C2F8250823018F41092D70133C0C0939C
:10095000D80183E08093D7012DC0C093D90184E0F2
:100960008093D70127C0C093DA0185E08093D70137
:1009700021C0C330D1F481E08093DB019091D90193
:1009800080E0009749F481E090E02091DA01222391
:1009900029F480E090E002C081E090E09093DE01D5
:1009A0008093DD011092D70105C01092D70102C0DB
:1009B0001092D70180E090E00E94B20581E0CF91D3
:1009C00008958091DD019091DE0108950F931F93AA
:1009D000CF93DF9300D000D0CDB7DEB7082F8032A1
:1009E00021F40E94AE0281E061C082E00E9409060B
:1009F00082E00E940906802F0E9409060E34E9F168
:100A00000F3421F00A3409F050C03FC081EE91E06C
:100A10000E944C01880F880F0E94090601EE11E028
:100A200019C01C821B821A821982C801BE016D5F27
:100A30007F4FAE014F5F5F4F0E9424018C810E9467
:100A400009068B810E9409068A810E940906898114
:100A50000E940906C8010E944501882311F3809174
:100A6000DC01880F0E9409069091DC019923C9F0EE
:100A700080E08F5F8917E9F714C081E00E940906C2
:100A80008091DC010E9409060CC082E00E940906E8
:100A90000E940702082F892F0E940906802F0E94BA
:100AA000090683E00E94090601C080E00F900F90C4
:100AB0000F900F90DF91CF911F910F91089580912A
:100AC000DB01882341F08091D8010E94E604109256
:100AD000D8011092DB010895CF93DF9300D00F92DD
:100AE000CDB7DEB7F8940E94A905882379F10E945A
:100AF0006806882359F10E942602882339F10E9452
:100B00006E04882319F10E94AE02882319F001E0D7
:100B100010E002C000E010E07894DE011196E7E1F9
:100B2000F1E083E001900D928150E1F7CE01019652
:100B30000E9411060115110529F00E945F050E940F
:100B40003104F8CF81E00E94B205F4CF00E010E05C
:100B5000E3CF8FEF84B987B98AB915B818B81BB835
:100B600081E00895882311F0289A0895289808951F
:100B7000CF93C82F8823D1F081E00E94B2058FEF78
:100B800092E5A7E081509040A040E1F700C000004E
:100B900080E00E94B2058FEF91EEA4E0815090407A
:100BA000A040E1F700C00000C15031F7CF91089597
:100BB000E0ECF0E020812D7F20839C0140E050E0BC
:100BC00060E271EA87E090E00E94AA08CA01B901D8
:100BD00061507040804090400E949B070E946D07CA
:100BE0007093C5006093C400E1ECF0E088E180837D
:100BF0008EE08093C2008081806880838FEF99E6C9
:100C0000A8E181509040A040E1F700C0000081E0E1
:100C10000895E0ECF0E0908195FFFDCF8093C60051
:100C200008950F931F93CF938C01FC01808188233B
:100C300051F0C0E00E940906CF5FF801EC0FF11DF2
:100C400080818823B9F78AE00E9409068DE00E941E
:100C50000906CF911F910F910895E0ECF0E080819B
:100C600084FFFDCF8091C60008951F920F920FB6AA
:100C70000F9211242F933F934F935F936F937F9322
:100C80008F939F93AF93BF93EF93FF938091C60091
:100C90000E947604FF91EF91BF91AF919F918F9148
:100CA0007F916F915F914F913F912F910F900FBE68
:100CB0000F901F9018958091C00084FF08C0A6EC8B
:100CC000B0E0E0ECF0E08C91808184FDFCCF0895F1
:100CD0008AB18FEF8AB9E0E8F0E080818268808392
:100CE000E1E8F0E080818961808380818260808397
:100CF00080818E7F808380818B7F8083E6E8F0E037
:100D00008FE19EE491838083808191818F53924013
:100D1000909389008093880081E00895009769F09E
:100D200020E030E0E9EFF0E03197F1F700C000009B
:100D30002F5F3F4F28173907A9F70895CF92DF9209
:100D4000EF92FF920F931F93CF93DF936B017C0180
:100D500020E030E040E151E40E94270820E030EC40
:100D60004FE054E40E9404070E946D078B019C0130
:100D70006091DF017091E00180E090E00E949907AE
:100D8000A70196010E9403070E946807862F972FEC
:100D900099231CF4909581959F4F9C01992314F4FD
:100DA0002F5F3F4F35952795D22FC32FC701B6012F
:100DB0000E946D07DC01CB019093E0018093DF017D
:100DC00022E00F33120710F40FE312E08091860047
:100DD0009091870029E00734120710F006E419E02B
:100DE000801B910B90938900809388008D2F9C2FFE
:100DF0000E948E06DF91CF911F910F91FF90EF908F
:100E0000DF90CF9008955058BB27AA270ED0E5C099
:100E1000D6D030F0DBD020F031F49F3F11F41EF437
:100E2000CBC00EF4E095E7FBC1C0E92FE7D080F31B
:100E3000BA17620773078407950718F071F49EF5D7
:100E4000FFC00EF4E0950B2EBA2FA02D0B01B901B7
:100E500090010C01CA01A0011124FF27591B99F030
:100E6000593F50F4503E68F11A16F040A22F232F3C
:100E7000342F4427585FF3CF469537952795A7958C
:100E8000F0405395C9F77EF41F16BA0B620B730B33
:100E9000840BBAF09150A1F0FF0FBB1F661F771FA4
:100EA000881FC2F70EC0BA0F621F731F841F48F459
:100EB000879577956795B795F7959E3F08F0B3CFDF
:100EC0009395880F08F09927EE0F979587950895C9
:100ED00004D06894B111B5C0089598D088F09F5798
:100EE00090F0B92F9927B751A0F0D1F0660F771F76
:100EF000881F991F1AF0BA95C9F712C0B13081F056
:100F00009FD0B1E008959CC0672F782F8827B85FE5
:100F100039F0B93FCCF3869577956795B395D9F7B6
:100F20003EF490958095709561957F4F8F4F9F4FC0
:100F30000895E89409C097FB3EF4909580957095CC
:100F400061957F4F8F4F9F4F9923A9F0F92F96E915
:100F5000BB279395F695879577956795B795F1118A
:100F6000F8CFFAF4BB0F11F460FF1BC06F5F7F4F27
:100F70008F4F9F4F16C0882311F096E911C0772339
:100F800021F09EE8872F762F05C0662371F096E842
:100F9000862F70E060E02AF09A95660F771F881F11
:100FA000DAF7880F9695879597F9089597F99F67CF
:100FB00080E870E060E008959FEF80EC08950024E1
:100FC0000A941616170618060906089500240A94AE
:100FD00012161306140605060895092E0394000C34
:100FE00011F4882352F0BB0F40F4BF2B11F460FFC3
:100FF00004C06F5F7F4F8F4F9F4F089557FD9058EC
:10100000440F551F59F05F3F71F04795880F97FBCC
:10101000991F61F09F3F79F0879508951216130686
:101020001406551FF2CF4695F1DF08C016161706B5
:101030001806991FF1CF86957105610508940895EA
:10104000E894BB2766277727CB0197F908950BD043
:10105000C4CFB5DF28F0BADF18F0952309F0A6CF8A
:10106000ABCF1124EECFCADFA0F3959FD1F3950F3C
:1010700050E0551F629FF001729FBB27F00DB11D1C
:10108000639FAA27F00DB11DAA1F649F6627B00DAC
:10109000A11D661F829F2227B00DA11D621F739F95
:1010A000B00DA11D621F839FA00D611D221F749FA3
:1010B0003327A00D611D231F849F600D211D822FEA
:1010C000762F6A2F11249F5750408AF0E1F0882331
:1010D0004AF0EE0FFF1FBB1F661F771F881F91503E
:1010E0005040A9F79E3F510570F060CFAACF5F3FF7
:1010F000ECF3983EDCF3869577956795B795F79571
:10110000E7959F5FC1F7FE2B880F911D96958795F8
:1011100097F90895991B79E004C0991F961708F074
:10112000961B881F7A95C9F780950895AA1BBB1B4B
:1011300051E107C0AA1FBB1FA617B70710F0A61BD7
:10114000B70B881F991F5A95A9F780959095BC01F8
:10115000CD01089597FB092E05260ED057FD04D02A
:1011600014D00AD0001C38F4509540953095219544
:101170003F4F4F4F5F4F0895F6F7909580957095CC
:1011800061957F4F8F4F9F4F0895A1E21A2EAA1BA2
:10119000BB1BFD010DC0AA1FBB1FEE1FFF1FA21727
:1011A000B307E407F50720F0A21BB30BE40BF50B24
:1011B000661F771F881F991F1A9469F760957095AD
:1011C000809590959B01AC01BD01CF010895CF930F
:1011D000DF93AC018230910510F442E050E0E091E1
:1011E000EB01F091EC0120E030E0A0E0B0E024C0A1
:1011F0008081918184179507D0F08417950771F449
:1012000082819381109729F013969C938E93129765
:101210002CC09093EC018093EB0127C02115310580
:1012200019F08217930718F49C01BD01EF01928118
:101230008381DF01E92FF82F3097D1F62115310591
:10124000F9F0C901841B950B8430910580F48A81E3
:101250009B816115710521F0FB019383828304C09A
:101260009093EC018093EB01FE01329642C0FE01A7
:10127000E80FF91F4193519302979983888339C0EE
:101280008091E9019091EA01009741F480911C015D
:1012900090911D019093EA018093E90120911A0138
:1012A00030911B012115310541F42DB73EB78091D6
:1012B0001E0190911F01281B390BE091E901F0916B
:1012C000EA01E217F30798F42E1B3F0B24173507AA
:1012D00070F0CA0102962817390748F08E0F9F1F39
:1012E0009093EA018093E9014193519302C0E0E0B9
:1012F000F0E0CF01DF91CF9108950F931F93CF932B
:10130000DF939C01009709F48CC0DC0112971396BF
:101310001C921E9212976091EB017091EC01611585
:10132000710589F48D919C911197820F931F2091E3
:10133000E9013091EA012817390769F5B093EA010C
:10134000A093E9016EC0FB0140E050E001C0FC0148
:10135000EA17FB0730F482819381AF010097B9F758
:101360001FC0E9012297FB83EA8308811981C90123
:10137000800F911F8E179F0759F480819181800FF4
:10138000911F029699838883828193819B838A83AC
:101390004115510529F4B093EC01A093EB0141C034
:1013A000FA01B383A283C191D191EC0FFD1FAE1757
:1013B000BF0781F4F901929182918C0F9D1F0296D3
:1013C000DA0111969C938E938281938113969C935C
:1013D0008E931297E0E0F0E002C0FB01BC01DB015C
:1013E00012968D919C9113970097B9F7CB010296B5
:1013F0002D913C911197820F931F2091E90130911B
:10140000EA012817390769F4309729F41092EC01A2
:101410001092EB0102C0138212827093EA01609372
:10142000E901DF91CF911F910F910895F894FFCFBB
:1014300053544152542000454E4420000000010006
:101440000000000000FFFF4F4B000000ED012000F6
:00000001FF
