:100000000C9434000C9451000C9451000C94510049
:100010000C9451000C9451000C9451000C9451001C
:100020000C9451000C9451000C9451000C9451000C
:100030000C9451000C9451000C9451000C945100FC
:100040000C9451000C9451000C946C050C945100CC
:100050000C9451000C9451000C9451000C945100DC
:100060000C9451000C94510011241FBECFEFD4E02A
:10007000DEBFCDBF11E0A0E0B1E0EEE9F2E102C0E9
:1000800005900D92AA31B107D9F712E0AAE1B1E0CB
:1000900001C01D92A134B107E1F70E94A5040C94A0
:1000A0004D090C940000FF920F931F93CF93DF93A1
:1000B0008C01F62EDC0116968C911697861709F4A2
:1000C00043C08D919C910E94B408F8018281938174
:1000D0000E94B408CF2DD0E0CC0FDD1FCC0FDD1F68
:1000E000CE010E941E08D8018C9311969C93CE01DC
:1000F0000E941E08F80182839383FF20E9F02F2DD0
:10010000215030E02F5F3F4F220F331F80E090E0FF
:10011000D801ED91FC911197E80FF91F118210821F
:100120001296ED91FC911397E80FF91F118210823E
:1001300002968217930761F7F394F801F68217820B
:100140001482158281E001C080E0DF91CF911F9180
:100150000F91FF900895CF93DF93CDB7DEB76097EF
:100160000FB6F894DEBF0FBECDBF682FCE01099643
:100170000E945300DE011196FE01399688E001903D
:100180000D928150E1F729813A814B815C816D812B
:100190007E818F81988560960FB6F894DEBF0FBE82
:1001A000CDBFDF91CF910895FC018581948198178F
:1001B00051F08F5F66810E94C107958387818150CE
:1001C000878381E0089580E00895EF92FF920F9376
:1001D0001F93CF93DF93EC018B017A012C81822F47
:1001E00090E001966E8170E00E94CD07482F8D81CE
:1001F0008417D1F030E0220F331F88819981820F5C
:10020000931FFC01118300838C8190E0880F991F5C
:100210002A813B81820F931FFC01F182E0824C8393
:100220008F818F5F8F8308C0CE010E94D400CE01E2
:10023000B801A7010E94E50081E0DF91CF911F91F5
:100240000F91FF90EF900895DC0114962C91149774
:1002500030E0220F331FED91FC911197E20FF31F55
:1002600080819181FB019183808312968D919C9175
:100270001397820F931FFC0180819181FA01918372
:100280008083CD010E94D4000895FC0181E0248187
:100290009581291380E008951092B900E8EBF0E011
:1002A00080E28083908181E09B3008F480E00895B3
:1002B000CF93DF9310921A01880F682BECEBF0E0DC
:1002C00024EAA9EBB0E0CBEBD0E034E884E920836A
:1002D00007C090911A019F5F90931A01953648F5D7
:1002E00090819923B4F79C91987F983011F09031C8
:1002F00011F56883308307C090911A019F5F909336
:100300001A019536D0F490819923B4F79C91987F87
:10031000903211F0983599F4808307C090911A01BA
:100320009F5F90931A01953660F4908194FDF6CF0B
:10033000CECF80E007C080E005C080E003C081E050
:1003400001C080E0DF91CF91089510921A0184E9F5
:100350008093BC00ECEBF0E007C080911A018F5F46
:1003600080931A01853618F4808184FDF6CF0895B4
:1003700010921A018093BB0084E88093BC00ECEBE0
:10038000F0E007C080911A018F5F80931A018536D3
:1003900058F480818823B4F79091B900987F81E068
:1003A000983219F480E0089580E0089510921A01BF
:1003B00084EC8093BC00ECEBF0E007C080911A0164
:1003C0008F5F80931A01853630F480818823B4F7DB
:1003D0008091BB00089580E0089510921A0184E88E
:1003E0008093BC00ECEBF0E007C080911A018F5FB6
:1003F00080931A01853630F480818823B4F7809188
:10040000BB00089580E0089580911B0190911C012C
:100410000895CF93DF93D82FC62F82E660E00E9425
:100420005801882321F40E94A50180E009C08D2F86
:100430000E94B8018C2F0E94B8010E94A50181E0A2
:10044000DF91CF91089560EA76E881E090E00E9424
:100450004C01882329F080E060E00E9409020895A1
:1004600080E008950F931F93CF93DF93082F162FEB
:10047000EA0182E660E00E945801882321F40E948C
:10048000A50180E028C0123009F40068802F0E9486
:10049000B8010E94A50182E661E00E94580188230C
:1004A00021F40E94A50180E016C0113021F40E94C1
:1004B000D60188830DC0123039F40E94D60188839A
:1004C0000E94D601898304C00E94A50180E003C078
:1004D0000E94A50181E0DF91CF911F910F910895B6
:1004E000CF93DF9300D0CDB7DEB780E064E00E9409
:1004F0000902882331F18FE59AEE0197F1F700C0E8
:1005000000008FE062E0AE014F5F5F4F0E94320259
:100510008823D1F0998180E02A8130E0822B932BCF
:1005200090931C0180931B01009731F48CEB92E0B7
:1005300090931C0180931B0180911B0190911C01E1
:1005400005C080E090E002C080E090E00F900F9046
:10055000DF91CF91089560E070E0CB010E94D50556
:10056000109206011092050181E080930701089521
:100570008F929F92AF92BF92CF92DF92EF92FF92B3
:100580000F931F93CF93DF9300D000D00F92CDB77E
:10059000DEB7DE011196E0E0F1E085E001900D921A
:1005A0008150E1F70F2EFFE1CF2EF1E0DF2EF02D8D
:1005B00000E010E00F2EF5E0EF2EFF24F02DEC0E02
:1005C000FD1EAA24BB240F2EF1ED8F2EF1E09F2EED
:1005D000F02D20C041915D914503C0011124280FE9
:1005E000391FEE15FF05B1F7253131055CF0F60135
:1005F0004081C401B50150E00E94E50081E090E037
:100600000E94EF040F5F1F4F0894C11CD11C003BD8
:10061000110539F0FE013196D801A35EBE4F950158
:10062000D9CF80910E0190910F0120910C01309152
:100630000D012817390740F0FC01E35EFE4F1192CF
:10064000019628173907D8F710920D0110920C0166
:100650008FEF9FEF90930F0180930E010F900F90FB
:100660000F900F900F90DF91CF911F910F91FF90FE
:10067000EF90DF90CF90BF90AF909F908F900895B4
:1006800021E08936920734F08856914021E089367E
:100690009207D4F72EEF8839920734F488599E4F89
:1006A0002EEF88399207D4F399231CF488599E4F72
:1006B000EAF30895EF92FF921F93CF93DF93182FE1
:1006C0000E945004E82EF92EC0910501D091060138
:1006D000CB35D10540F0C7018C1B9D0B865A9F4F2F
:1006E0000E94400301C0CE01CA35D10538F4C701CC
:1006F0008C1B9D0B865A9F4F0E944003CA35D10523
:1007000009F4C70196958795FC01E35EFE4F1083BF
:1007100020910C0130910D012817390720F4909396
:100720000D0180930C0120910E0130910F01821771
:10073000930720F490930F0180930E01DF91CF91E6
:100740001F91FF90EF90089580910501909106010F
:10075000843B910548F084EB90E0909306018093F0
:1007600005018FEF809307018091050190910601AB
:10077000009719F481E08093070160910501709161
:10078000060180E090E00E94D0060E94D5050E94FC
:1007900070020E945A0380910701992787FD909566
:1007A000880F991F2091050130910601820F931F38
:1007B000909306018093050108951092D90180E07D
:1007C0009BE40E940F0581E00895CF93C82F81E03C
:1007D00090E00E94E9048091D901823001F18330D8
:1007E00030F4882361F0813009F051C00FC08430AB
:1007F00049F1843008F1853009F049C029C0C23080
:1008000009F047C081E08093D90143C0C23021F490
:1008100082E08093D9013DC01092D9013AC08C2F5B
:100820008250823018F41092D90133C0C093DA019B
:1008300083E08093D9012DC0C093DB0184E08093D5
:10084000D90127C0C093DC0185E08093D90121C084
:10085000C330D1F481E08093DD019091DB0180E031
:10086000009749F481E090E02091DC01222329F4F3
:1008700080E090E002C081E090E090933A028093A3
:1008800039021092D90105C01092D90102C010920C
:10089000D90180E090E00E94E90481E0CF910895C1
:1008A0008091390290913A020895CF93C82F8032F7
:1008B00021F40E94AB0281E037C082E00E94400533
:1008C00082E00E9440058C2F0E944005CE3499F0B2
:1008D000CF3419F0CA3439F516C08091DE01880F83
:1008E0000E9440059091DE019923C9F080E08F5F5E
:1008F0008917E9F714C081E00E9440058091DE016C
:100900000E9440050CC082E00E9440050E94040243
:10091000C82F892F0E9440058C2F0E94400583E03C
:100920000E94400501C080E0CF9108958091DD01D3
:10093000882351F08091DA010E9455041092DA0167
:100940001092DD010E94A4030895CF93DF9300D09D
:100950000F92CDB7DEB7F8940E94E004882369F1C6
:100960000E949F05882349F10E942302882329F1D0
:100970000E94DD03882309F10E94AB02882319F04D
:1009800001E010E002C000E010E07894DE01119672
:10099000E0E1F1E083E001900D928150E1F7CE01BA
:1009A00001960E9448050115110519F00E94960450
:1009B000FACF81E00E94E904F6CF00E010E0E5CF35
:1009C0008FEF84B987B98AB915B818B81BB881E018
:1009D0000895882311F0289A089528980895CF93B0
:1009E000C82F8823D1F081E00E94E9048FEF92E5BF
:1009F000A7E081509040A040E1F700C0000080E0F7
:100A00000E94E9048FEF91EEA4E081509040A04055
:100A1000E1F700C00000C15031F7CF910895E0EC3C
:100A2000F0E020812D7F20839C0140E050E060E2D7
:100A300071EA87E090E00E94E107CA01B9016150C4
:100A40007040804090400E94D2060E94A40670939D
:100A5000C5006093C400E1ECF0E088E180838EE0A3
:100A60008093C2008081806880838FEF99E6A8E13F
:100A700081509040A040E1F700C0000081E008955F
:100A8000E0ECF0E0908195FFFDCF8093C6000895E3
:100A90000F931F93CF938C01FC018081882351F029
:100AA000C0E00E944005CF5FF801EC0FF11D80818E
:100AB0008823B9F78AE00E9440058DE00E94400536
:100AC000CF911F910F910895E0ECF0E0808184FFB9
:100AD000FDCF8091C60008951F920F920FB60F921E
:100AE00011242F933F934F935F936F937F938F9333
:100AF0009F93AF93BF93EF93FF938091C6000E94A3
:100B0000E503FF91EF91BF91AF919F918F917F91FD
:100B10006F915F914F913F912F910F900FBE0F906A
:100B20001F9018958091C00084FF08C0A6ECB0E02B
:100B3000E0ECF0E08C91808184FDFCCF08958AB1D7
:100B40008FEF8AB9E0E8F0E0808182688083E1E895
:100B5000F0E08081896180838081826080838081F0
:100B60008E7F808380818B7F8083E6E8F0E08FE159
:100B70009EE491838083808191818F5392409093F2
:100B800089008093880081E00895009769F020E053
:100B900030E0E9EFF0E03197F1F700C000002F5F9F
:100BA0003F4F28173907A9F70895CF92DF92EF92A8
:100BB000FF920F931F93CF93DF936B017C0120E093
:100BC00030E040E251E40E945E0720E030EC4FE06C
:100BD00054E40E943B060E94A4068B019C01609194
:100BE0003B0270913C0280E090E00E94D006A70199
:100BF00096010E943A060E949F06862F972F9923FE
:100C00001CF4909581959F4F9C01992314F42F5FBC
:100C10003F4F35952795D22FC32FC701B6010E94AC
:100C2000A406DC01CB0190933C0280933B0222E0BE
:100C30000F33120710F40FE312E0809186009091B9
:100C4000870029E00834120710F007E419E0801B40
:100C5000910B90938900809388008D2F9C2F0E9488
:100C6000C505DF91CF911F910F91FF90EF90DF901D
:100C7000CF9008955058BB27AA270ED0E5C0D6D0F4
:100C800030F0DBD020F031F49F3F11F41EF4CBC0E4
:100C90000EF4E095E7FBC1C0E92FE7D080F3BA1767
:100CA000620773078407950718F071F49EF5FFC07B
:100CB0000EF4E0950B2EBA2FA02D0B01B901900177
:100CC0000C01CA01A0011124FF27591B99F0593FBB
:100CD00050F4503E68F11A16F040A22F232F342F03
:100CE0004427585FF3CF469537952795A795F04051
:100CF0005395C9F77EF41F16BA0B620B730B840B66
:100D0000BAF09150A1F0FF0FBB1F661F771F881F1D
:100D1000C2F70EC0BA0F621F731F841F48F4879575
:100D200077956795B795F7959E3F08F0B3CF939564
:100D3000880F08F09927EE0F97958795089504D0AE
:100D40006894B111B5C0089598D088F09F5790F07D
:100D5000B92F9927B751A0F0D1F0660F771F881FE0
:100D6000991F1AF0BA95C9F712C0B13081F09FD01F
:100D7000B1E008959CC0672F782F8827B85F39F0BD
:100D8000B93FCCF3869577956795B395D9F73EF43F
:100D900090958095709561957F4F8F4F9F4F0895E7
:100DA000E89409C097FB3EF4909580957095619505
:100DB0007F4F8F4F9F4F9923A9F0F92F96E9BB27BB
:100DC0009395F695879577956795B795F111F8CF37
:100DD000FAF4BB0F11F460FF1BC06F5F7F4F8F4FA2
:100DE0009F4F16C0882311F096E911C0772321F098
:100DF0009EE8872F762F05C0662371F096E8862F30
:100E000070E060E02AF09A95660F771F881FDAF786
:100E1000880F9695879597F9089597F99F6780E8C9
:100E200070E060E008959FEF80EC089500240A943C
:100E30001616170618060906089500240A941216B5
:100E40001306140605060895092E0394000C11F4E8
:100E5000882352F0BB0F40F4BF2B11F460FF04C095
:100E60006F5F7F4F8F4F9F4F089557FD9058440FEE
:100E7000551F59F05F3F71F04795880F97FB991FF9
:100E800061F09F3F79F087950895121613061406B6
:100E9000551FF2CF4695F1DF08C016161706180643
:100EA000991FF1CF86957105610508940895E8941E
:100EB000BB2766277727CB0197F908950BD0C4CFBE
:100EC000B5DF28F0BADF18F0952309F0A6CFABCF35
:100ED0001124EECFCADFA0F3959FD1F3950F50E018
:100EE000551F629FF001729FBB27F00DB11D639FDC
:100EF000AA27F00DB11DAA1F649F6627B00DA11D82
:100F0000661F829F2227B00DA11D621F739FB00D27
:100F1000A11D621F839FA00D611D221F749F332797
:100F2000A00D611D231F849F600D211D822F762F30
:100F30006A2F11249F5750408AF0E1F088234AF02D
:100F4000EE0FFF1FBB1F661F771F881F9150504079
:100F5000A9F79E3F510570F060CFAACF5F3FECF339
:100F6000983EDCF3869577956795B795F795E79565
:100F70009F5FC1F7FE2B880F911D9695879597F976
:100F80000895991B79E004C0991F961708F0961BE5
:100F9000881F7A95C9F780950895AA1BBB1B51E15C
:100FA00007C0AA1FBB1FA617B70710F0A61BB70BD9
:100FB000881F991F5A95A9F780959095BC01CD017E
:100FC000089597FB092E05260ED057FD04D014D0A6
:100FD0000AD0001C38F450954095309521953F4F2C
:100FE0004F4F5F4F0895F6F79095809570956195F6
:100FF0007F4F8F4F9F4F0895A1E21A2EAA1BBB1B54
:10100000FD010DC0AA1FBB1FEE1FFF1FA217B307D4
:10101000E407F50720F0A21BB30BE40BF50B661FEA
:10102000771F881F991F1A9469F7609570958095AE
:1010300090959B01AC01BD01CF010895CF93DF9343
:10104000AC018230910510F442E050E0E0913F02A3
:10105000F091400220E030E0A0E0B0E024C08081C8
:10106000918184179507D0F08417950771F48281D8
:101070009381109729F013969C938E9312972CC00E
:101080009093400280933F0227C02115310519F04B
:101090008217930718F49C01BD01EF0192818381AF
:1010A000DF01E92FF82F3097D1F621153105F9F03E
:1010B000C901841B950B8430910580F48A819B8142
:1010C0006115710521F0FB019383828304C0909325
:1010D000400280933F02FE01329642C0FE01E80FBB
:1010E000F91F4193519302979983888339C0809166
:1010F0003D0290913E02009741F48091150190913C
:10110000160190933E0280933D022091130130918D
:1011100014012115310541F42DB73EB78091170117
:1011200090911801281B390BE0913D02F0913E028D
:10113000E217F30798F42E1B3F0B2417350770F0C6
:10114000CA0102962817390748F08E0F9F1F909307
:101150003E0280933D024193519302C0E0E0F0E0F3
:10116000CF01DF91CF9108950F931F93CF93DF931A
:101170009C01009709F48CC0DC01129713961C9215
:101180001E92129760913F027091400261157105A5
:1011900089F48D919C911197820F931F20913D02AC
:1011A00030913E022817390769F5B0933E02A093AB
:1011B0003D026EC0FB0140E050E001C0FC01EA17B7
:1011C000FB0730F482819381AF010097B9F71FC00C
:1011D000E9012297FB83EA8308811981C901800F05
:1011E000911F8E179F0759F480819181800F911F65
:1011F000029699838883828193819B838A83411598
:10120000510529F4B0934002A0933F0241C0FA0176
:10121000B383A283C191D191EC0FFD1FAE17BF071D
:1012200081F4F901929182918C0F9D1F0296DA014F
:1012300011969C938E938281938113969C938E93A7
:101240001297E0E0F0E002C0FB01BC01DB01129666
:101250008D919C9113970097B9F7CB0102962D9130
:101260003C911197820F931F20913D0230913E02D5
:101270002817390769F4309729F410924002109228
:101280003F0202C01382128270933E0260933D02BD
:0E129000DF91CF911F910F910895F894FFCF39
:10129E0000FF000100000001000000000000FFFF41
:0A12AE004F4B000000410220000039
:00000001FF
